{
  "contractName": "BaseRegistrarImplementation",
  "abi": [
    {
      "inputs": [
        {
          "internalType": "contract ENS",
          "name": "_ens",
          "type": "address"
        },
        {
          "internalType": "bytes32",
          "name": "_baseNode",
          "type": "bytes32"
        }
      ],
      "stateMutability": "nonpayable",
      "type": "constructor"
    },
    {
      "anonymous": false,
      "inputs": [
        {
          "indexed": true,
          "internalType": "address",
          "name": "owner",
          "type": "address"
        },
        {
          "indexed": true,
          "internalType": "address",
          "name": "approved",
          "type": "address"
        },
        {
          "indexed": true,
          "internalType": "uint256",
          "name": "tokenId",
          "type": "uint256"
        }
      ],
      "name": "Approval",
      "type": "event"
    },
    {
      "anonymous": false,
      "inputs": [
        {
          "indexed": true,
          "internalType": "address",
          "name": "owner",
          "type": "address"
        },
        {
          "indexed": true,
          "internalType": "address",
          "name": "operator",
          "type": "address"
        },
        {
          "indexed": false,
          "internalType": "bool",
          "name": "approved",
          "type": "bool"
        }
      ],
      "name": "ApprovalForAll",
      "type": "event"
    },
    {
      "anonymous": false,
      "inputs": [
        {
          "indexed": true,
          "internalType": "address",
          "name": "controller",
          "type": "address"
        }
      ],
      "name": "ControllerAdded",
      "type": "event"
    },
    {
      "anonymous": false,
      "inputs": [
        {
          "indexed": true,
          "internalType": "address",
          "name": "controller",
          "type": "address"
        }
      ],
      "name": "ControllerRemoved",
      "type": "event"
    },
    {
      "anonymous": false,
      "inputs": [
        {
          "indexed": true,
          "internalType": "uint256",
          "name": "id",
          "type": "uint256"
        },
        {
          "indexed": true,
          "internalType": "address",
          "name": "owner",
          "type": "address"
        },
        {
          "indexed": false,
          "internalType": "uint256",
          "name": "expires",
          "type": "uint256"
        }
      ],
      "name": "NameMigrated",
      "type": "event"
    },
    {
      "anonymous": false,
      "inputs": [
        {
          "indexed": true,
          "internalType": "uint256",
          "name": "id",
          "type": "uint256"
        },
        {
          "indexed": true,
          "internalType": "address",
          "name": "owner",
          "type": "address"
        },
        {
          "indexed": false,
          "internalType": "uint256",
          "name": "expires",
          "type": "uint256"
        }
      ],
      "name": "NameRegistered",
      "type": "event"
    },
    {
      "anonymous": false,
      "inputs": [
        {
          "indexed": true,
          "internalType": "uint256",
          "name": "id",
          "type": "uint256"
        },
        {
          "indexed": false,
          "internalType": "uint256",
          "name": "expires",
          "type": "uint256"
        }
      ],
      "name": "NameRenewed",
      "type": "event"
    },
    {
      "anonymous": false,
      "inputs": [
        {
          "indexed": true,
          "internalType": "address",
          "name": "previousOwner",
          "type": "address"
        },
        {
          "indexed": true,
          "internalType": "address",
          "name": "newOwner",
          "type": "address"
        }
      ],
      "name": "OwnershipTransferred",
      "type": "event"
    },
    {
      "anonymous": false,
      "inputs": [
        {
          "indexed": true,
          "internalType": "address",
          "name": "from",
          "type": "address"
        },
        {
          "indexed": true,
          "internalType": "address",
          "name": "to",
          "type": "address"
        },
        {
          "indexed": true,
          "internalType": "uint256",
          "name": "tokenId",
          "type": "uint256"
        }
      ],
      "name": "Transfer",
      "type": "event"
    },
    {
      "inputs": [],
      "name": "GRACE_PERIOD",
      "outputs": [
        {
          "internalType": "uint256",
          "name": "",
          "type": "uint256"
        }
      ],
      "stateMutability": "view",
      "type": "function"
    },
    {
      "inputs": [
        {
          "internalType": "address",
          "name": "to",
          "type": "address"
        },
        {
          "internalType": "uint256",
          "name": "tokenId",
          "type": "uint256"
        }
      ],
      "name": "approve",
      "outputs": [],
      "stateMutability": "nonpayable",
      "type": "function"
    },
    {
      "inputs": [
        {
          "internalType": "address",
          "name": "owner",
          "type": "address"
        }
      ],
      "name": "balanceOf",
      "outputs": [
        {
          "internalType": "uint256",
          "name": "",
          "type": "uint256"
        }
      ],
      "stateMutability": "view",
      "type": "function"
    },
    {
      "inputs": [],
      "name": "baseNode",
      "outputs": [
        {
          "internalType": "bytes32",
          "name": "",
          "type": "bytes32"
        }
      ],
      "stateMutability": "view",
      "type": "function"
    },
    {
      "inputs": [
        {
          "internalType": "address",
          "name": "",
          "type": "address"
        }
      ],
      "name": "controllers",
      "outputs": [
        {
          "internalType": "bool",
          "name": "",
          "type": "bool"
        }
      ],
      "stateMutability": "view",
      "type": "function"
    },
    {
      "inputs": [],
      "name": "ens",
      "outputs": [
        {
          "internalType": "contract ENS",
          "name": "",
          "type": "address"
        }
      ],
      "stateMutability": "view",
      "type": "function"
    },
    {
      "inputs": [
        {
          "internalType": "uint256",
          "name": "tokenId",
          "type": "uint256"
        }
      ],
      "name": "getApproved",
      "outputs": [
        {
          "internalType": "address",
          "name": "",
          "type": "address"
        }
      ],
      "stateMutability": "view",
      "type": "function"
    },
    {
      "inputs": [
        {
          "internalType": "address",
          "name": "owner",
          "type": "address"
        },
        {
          "internalType": "address",
          "name": "operator",
          "type": "address"
        }
      ],
      "name": "isApprovedForAll",
      "outputs": [
        {
          "internalType": "bool",
          "name": "",
          "type": "bool"
        }
      ],
      "stateMutability": "view",
      "type": "function"
    },
    {
      "inputs": [],
      "name": "name",
      "outputs": [
        {
          "internalType": "string",
          "name": "",
          "type": "string"
        }
      ],
      "stateMutability": "view",
      "type": "function"
    },
    {
      "inputs": [],
      "name": "owner",
      "outputs": [
        {
          "internalType": "address",
          "name": "",
          "type": "address"
        }
      ],
      "stateMutability": "view",
      "type": "function"
    },
    {
      "inputs": [],
      "name": "renounceOwnership",
      "outputs": [],
      "stateMutability": "nonpayable",
      "type": "function"
    },
    {
      "inputs": [
        {
          "internalType": "address",
          "name": "from",
          "type": "address"
        },
        {
          "internalType": "address",
          "name": "to",
          "type": "address"
        },
        {
          "internalType": "uint256",
          "name": "tokenId",
          "type": "uint256"
        }
      ],
      "name": "safeTransferFrom",
      "outputs": [],
      "stateMutability": "nonpayable",
      "type": "function"
    },
    {
      "inputs": [
        {
          "internalType": "address",
          "name": "from",
          "type": "address"
        },
        {
          "internalType": "address",
          "name": "to",
          "type": "address"
        },
        {
          "internalType": "uint256",
          "name": "tokenId",
          "type": "uint256"
        },
        {
          "internalType": "bytes",
          "name": "_data",
          "type": "bytes"
        }
      ],
      "name": "safeTransferFrom",
      "outputs": [],
      "stateMutability": "nonpayable",
      "type": "function"
    },
    {
      "inputs": [
        {
          "internalType": "address",
          "name": "operator",
          "type": "address"
        },
        {
          "internalType": "bool",
          "name": "approved",
          "type": "bool"
        }
      ],
      "name": "setApprovalForAll",
      "outputs": [],
      "stateMutability": "nonpayable",
      "type": "function"
    },
    {
      "inputs": [],
      "name": "symbol",
      "outputs": [
        {
          "internalType": "string",
          "name": "",
          "type": "string"
        }
      ],
      "stateMutability": "view",
      "type": "function"
    },
    {
      "inputs": [
        {
          "internalType": "uint256",
          "name": "tokenId",
          "type": "uint256"
        }
      ],
      "name": "tokenURI",
      "outputs": [
        {
          "internalType": "string",
          "name": "",
          "type": "string"
        }
      ],
      "stateMutability": "view",
      "type": "function"
    },
    {
      "inputs": [
        {
          "internalType": "address",
          "name": "from",
          "type": "address"
        },
        {
          "internalType": "address",
          "name": "to",
          "type": "address"
        },
        {
          "internalType": "uint256",
          "name": "tokenId",
          "type": "uint256"
        }
      ],
      "name": "transferFrom",
      "outputs": [],
      "stateMutability": "nonpayable",
      "type": "function"
    },
    {
      "inputs": [
        {
          "internalType": "address",
          "name": "newOwner",
          "type": "address"
        }
      ],
      "name": "transferOwnership",
      "outputs": [],
      "stateMutability": "nonpayable",
      "type": "function"
    },
    {
      "inputs": [
        {
          "internalType": "uint256",
          "name": "tokenId",
          "type": "uint256"
        }
      ],
      "name": "ownerOf",
      "outputs": [
        {
          "internalType": "address",
          "name": "",
          "type": "address"
        }
      ],
      "stateMutability": "view",
      "type": "function"
    },
    {
      "inputs": [
        {
          "internalType": "address",
          "name": "controller",
          "type": "address"
        }
      ],
      "name": "addController",
      "outputs": [],
      "stateMutability": "nonpayable",
      "type": "function"
    },
    {
      "inputs": [
        {
          "internalType": "address",
          "name": "controller",
          "type": "address"
        }
      ],
      "name": "removeController",
      "outputs": [],
      "stateMutability": "nonpayable",
      "type": "function"
    },
    {
      "inputs": [
        {
          "internalType": "address",
          "name": "resolver",
          "type": "address"
        }
      ],
      "name": "setResolver",
      "outputs": [],
      "stateMutability": "nonpayable",
      "type": "function"
    },
    {
      "inputs": [
        {
          "internalType": "uint256",
          "name": "id",
          "type": "uint256"
        }
      ],
      "name": "nameExpires",
      "outputs": [
        {
          "internalType": "uint256",
          "name": "",
          "type": "uint256"
        }
      ],
      "stateMutability": "view",
      "type": "function"
    },
    {
      "inputs": [
        {
          "internalType": "uint256",
          "name": "id",
          "type": "uint256"
        }
      ],
      "name": "available",
      "outputs": [
        {
          "internalType": "bool",
          "name": "",
          "type": "bool"
        }
      ],
      "stateMutability": "view",
      "type": "function"
    },
    {
      "inputs": [
        {
          "internalType": "uint256",
          "name": "id",
          "type": "uint256"
        },
        {
          "internalType": "address",
          "name": "owner",
          "type": "address"
        },
        {
          "internalType": "uint256",
          "name": "duration",
          "type": "uint256"
        }
      ],
      "name": "register",
      "outputs": [
        {
          "internalType": "uint256",
          "name": "",
          "type": "uint256"
        }
      ],
      "stateMutability": "nonpayable",
      "type": "function"
    },
    {
      "inputs": [
        {
          "internalType": "uint256",
          "name": "id",
          "type": "uint256"
        },
        {
          "internalType": "address",
          "name": "owner",
          "type": "address"
        },
        {
          "internalType": "uint256",
          "name": "duration",
          "type": "uint256"
        }
      ],
      "name": "registerOnly",
      "outputs": [
        {
          "internalType": "uint256",
          "name": "",
          "type": "uint256"
        }
      ],
      "stateMutability": "nonpayable",
      "type": "function"
    },
    {
      "inputs": [
        {
          "internalType": "uint256",
          "name": "id",
          "type": "uint256"
        },
        {
          "internalType": "uint256",
          "name": "duration",
          "type": "uint256"
        }
      ],
      "name": "renew",
      "outputs": [
        {
          "internalType": "uint256",
          "name": "",
          "type": "uint256"
        }
      ],
      "stateMutability": "nonpayable",
      "type": "function"
    },
    {
      "inputs": [
        {
          "internalType": "uint256",
          "name": "id",
          "type": "uint256"
        },
        {
          "internalType": "address",
          "name": "owner",
          "type": "address"
        }
      ],
      "name": "reclaim",
      "outputs": [],
      "stateMutability": "nonpayable",
      "type": "function"
    },
    {
      "inputs": [
        {
          "internalType": "bytes4",
          "name": "interfaceID",
          "type": "bytes4"
        }
      ],
      "name": "supportsInterface",
      "outputs": [
        {
          "internalType": "bool",
          "name": "",
          "type": "bool"
        }
      ],
      "stateMutability": "view",
      "type": "function"
    }
  ],
  "bytecode": "0x60806040523480156200001157600080fd5b506040516200408c3803806200408c8339818101604052810190620000379190620002b7565b604051806020016040528060008152506040518060200160405280600081525062000089620000746200010d640100000000026401000000009004565b62000115640100000000026401000000009004565b8160019080519060200190620000a1929190620001d9565b508060029080519060200190620000ba929190620001d9565b50505081600760006101000a81548173ffffffffffffffffffffffffffffffffffffffff021916908373ffffffffffffffffffffffffffffffffffffffff160217905550806008819055505050620003e3565b600033905090565b60008060009054906101000a900473ffffffffffffffffffffffffffffffffffffffff169050816000806101000a81548173ffffffffffffffffffffffffffffffffffffffff021916908373ffffffffffffffffffffffffffffffffffffffff1602179055508173ffffffffffffffffffffffffffffffffffffffff168173ffffffffffffffffffffffffffffffffffffffff167f8be0079c531659141344cd1fd0a4f28419497f9722a3daafe3b4186f6b6457e060405160405180910390a35050565b828054620001e7906200034a565b90600052602060002090601f0160209004810192826200020b576000855562000257565b82601f106200022657805160ff191683800117855562000257565b8280016001018555821562000257579182015b828111156200025657825182559160200191906001019062000239565b5b5090506200026691906200026a565b5090565b5b80821115620002855760008160009055506001016200026b565b5090565b6000815190506200029a81620003af565b92915050565b600081519050620002b181620003c9565b92915050565b60008060408385031215620002cb57600080fd5b6000620002db85828601620002a0565b9250506020620002ee8582860162000289565b9150509250929050565b600062000305826200032a565b9050919050565b6000819050919050565b60006200032382620002f8565b9050919050565b600073ffffffffffffffffffffffffffffffffffffffff82169050919050565b600060028204905060018216806200036357607f821691505b602082108114156200037a576200037962000380565b5b50919050565b7f4e487b7100000000000000000000000000000000000000000000000000000000600052602260045260246000fd5b620003ba816200030c565b8114620003c657600080fd5b50565b620003d48162000316565b8114620003e057600080fd5b50565b613c9980620003f36000396000f3fe608060405234801561001057600080fd5b50600436106101ec576000357c01000000000000000000000000000000000000000000000000000000009004806395d89b4111610121578063c87b56dd116100bf578063e985e9c51161008e578063e985e9c51461056f578063f2fde38b1461059f578063f6a74ed7146105bb578063fca247ac146105d7576101ec565b8063c87b56dd146104c1578063d6e4fa86146104f1578063da8c229e14610521578063ddf7fcb014610551576101ec565b8063a7fc7a07116100fb578063a7fc7a071461043b578063b88d4fde14610457578063c1a287e214610473578063c475abff14610491576101ec565b806395d89b41146103d157806396e494e8146103ef578063a22cb4651461041f576101ec565b80633f15457f1161018e5780636352211e116101685780636352211e1461034957806370a0823114610379578063715018a6146103a95780638da5cb5b146103b3576101ec565b80633f15457f146102f357806342842e0e146103115780634e543b261461032d576101ec565b8063095ea7b3116101ca578063095ea7b31461026f5780630e297b451461028b57806323b872dd146102bb57806328ed4f6c146102d7576101ec565b806301ffc9a7146101f157806306fdde0314610221578063081812fc1461023f575b600080fd5b61020b60048036038101906102069190612c6f565b610607565b6040516102189190613137565b60405180910390f35b610229610851565b60405161023691906131e8565b60405180910390f35b61025960048036038101906102549190612cc1565b6108e3565b60405161026691906130d0565b60405180910390f35b61028960048036038101906102849190612c0a565b610968565b005b6102a560048036038101906102a09190612d26565b610a80565b6040516102b291906133ea565b60405180910390f35b6102d560048036038101906102d09190612b04565b610a98565b005b6102f160048036038101906102ec9190612cea565b610af8565b005b6102fb610ce2565b60405161030891906131cd565b60405180910390f35b61032b60048036038101906103269190612b04565b610d08565b005b61034760048036038101906103429190612a76565b610d28565b005b610363600480360381019061035e9190612cc1565b610e54565b60405161037091906130d0565b60405180910390f35b610393600480360381019061038e9190612a76565b610e85565b6040516103a091906133ea565b60405180910390f35b6103b1610f3d565b005b6103bb610fc5565b6040516103c891906130d0565b60405180910390f35b6103d9610fee565b6040516103e691906131e8565b60405180910390f35b61040960048036038101906104049190612cc1565b611080565b6040516104169190613137565b60405180910390f35b61043960048036038101906104349190612bce565b6110ad565b005b61045560048036038101906104509190612a76565b61122e565b005b610471600480360381019061046c9190612b53565b611348565b005b61047b6113aa565b60405161048891906133ea565b60405180910390f35b6104ab60048036038101906104a69190612d75565b6113b1565b6040516104b891906133ea565b60405180910390f35b6104db60048036038101906104d69190612cc1565b61160e565b6040516104e891906131e8565b60405180910390f35b61050b60048036038101906105069190612cc1565b6116b5565b60405161051891906133ea565b60405180910390f35b61053b60048036038101906105369190612a76565b6116d2565b6040516105489190613137565b60405180910390f35b6105596116f2565b6040516105669190613152565b60405180910390f35b61058960048036038101906105849190612ac8565b6116f8565b6040516105969190613137565b60405180910390f35b6105b960048036038101906105b49190612a76565b61178c565b005b6105d560048036038101906105d09190612a76565b611884565b005b6105f160048036038101906105ec9190612d26565b61199e565b6040516105fe91906133ea565b60405180910390f35b60007f01ffc9a7a5cef8baa21ed3c5c0d7e23accb804b619e9333b597f47a0d84076e27bffffffffffffffffffffffffffffffffffffffffffffffffffffffff1916827bffffffffffffffffffffffffffffffffffffffffffffffffffffffff191614806107e257507fb88d4fde60196325a28bb7f99a2582e0b46de55b18761e960c14ad7a320994657f42842e0eb38857a7775b4e7364b2775df7325074d088e7fb39590cd6281184ed7f23b872dd7302113369cda2901243429419bec145408fa8b352b3dd92b66c680b7fe985e9c5c6636c6879256001057b28ccac7718ef0ac56553ff9b926452cab8a37fa22cb4651ab9570f89bb516380c40ce76762284fb1f21337ceaf6adab99e7d4a7f081812fc55e34fdc7cf5d8b5cf4e3621fa6423fde952ec6ab24afdc0d85c0b2e7f095ea7b334ae44009aa867bfb386f5c3b4b443ac6f0ee573fa91c4608fbadfba7f6352211e6566aa027e75ac9dbf2423197fbd9b82b9d981a3ab367d355866aa1c7f70a08231b98ef4ca268c9cc3f6b4590e4bfec28280db06bb5d45e689f2a360be18181818181818187bffffffffffffffffffffffffffffffffffffffffffffffffffffffff1916827bffffffffffffffffffffffffffffffffffffffffffffffffffffffff1916145b8061084a57507f28ed4f6c74b219a5819055dfbcd2f1837c046c364cf01fabb6799e4f440d6f137bffffffffffffffffffffffffffffffffffffffffffffffffffffffff1916827bffffffffffffffffffffffffffffffffffffffffffffffffffffffff1916145b9050919050565b6060600180546108609061363d565b80601f016020809104026020016040519081016040528092919081815260200182805461088c9061363d565b80156108d95780601f106108ae576101008083540402835291602001916108d9565b820191906000526020600020905b8154815290600101906020018083116108bc57829003601f168201915b5050505050905090565b60006108ee826119b6565b61092d576040517f08c379a00000000000000000000000000000000000000000000000000000000081526004016109249061332a565b60405180910390fd5b6005600083815260200190815260200160002060009054906101000a900473ffffffffffffffffffffffffffffffffffffffff169050919050565b600061097382611a22565b90508073ffffffffffffffffffffffffffffffffffffffff168373ffffffffffffffffffffffffffffffffffffffff1614156109e4576040517f08c379a00000000000000000000000000000000000000000000000000000000081526004016109db906133aa565b60405180910390fd5b8073ffffffffffffffffffffffffffffffffffffffff16610a03611ad4565b73ffffffffffffffffffffffffffffffffffffffff161480610a325750610a3181610a2c611ad4565b6116f8565b5b610a71576040517f08c379a0000000000000000000000000000000000000000000000000000000008152600401610a68906132aa565b60405180910390fd5b610a7b8383611adc565b505050565b6000610a8f8484846000611b95565b90509392505050565b610aa9610aa3611ad4565b82611ec1565b610ae8576040517f08c379a0000000000000000000000000000000000000000000000000000000008152600401610adf906133ca565b60405180910390fd5b610af3838383611f56565b505050565b3073ffffffffffffffffffffffffffffffffffffffff16600760009054906101000a900473ffffffffffffffffffffffffffffffffffffffff1673ffffffffffffffffffffffffffffffffffffffff166302571be36008546040518263ffffffff167c0100000000000000000000000000000000000000000000000000000000028152600401610b889190613152565b60206040518083038186803b158015610ba057600080fd5b505afa158015610bb4573d6000803e3d6000fd5b505050506040513d601f19601f82011682018060405250810190610bd89190612a9f565b73ffffffffffffffffffffffffffffffffffffffff1614610bf857600080fd5b610c023383611ec1565b610c0b57600080fd5b600760009054906101000a900473ffffffffffffffffffffffffffffffffffffffff1673ffffffffffffffffffffffffffffffffffffffff166306ab592360085484600102846040518463ffffffff167c0100000000000000000000000000000000000000000000000000000000028152600401610c8b93929190613196565b602060405180830381600087803b158015610ca557600080fd5b505af1158015610cb9573d6000803e3d6000fd5b505050506040513d601f19601f82011682018060405250810190610cdd9190612c46565b505050565b600760009054906101000a900473ffffffffffffffffffffffffffffffffffffffff1681565b610d2383838360405180602001604052806000815250611348565b505050565b610d30611ad4565b73ffffffffffffffffffffffffffffffffffffffff16610d4e610fc5565b73ffffffffffffffffffffffffffffffffffffffff1614610da4576040517f08c379a0000000000000000000000000000000000000000000000000000000008152600401610d9b9061334a565b60405180910390fd5b600760009054906101000a900473ffffffffffffffffffffffffffffffffffffffff1673ffffffffffffffffffffffffffffffffffffffff16631896f70a600854836040518363ffffffff167c0100000000000000000000000000000000000000000000000000000000028152600401610e1f92919061316d565b600060405180830381600087803b158015610e3957600080fd5b505af1158015610e4d573d6000803e3d6000fd5b5050505050565b600042600a60008481526020019081526020016000205411610e7557600080fd5b610e7e82611a22565b9050919050565b60008073ffffffffffffffffffffffffffffffffffffffff168273ffffffffffffffffffffffffffffffffffffffff161415610ef6576040517f08c379a0000000000000000000000000000000000000000000000000000000008152600401610eed906132ca565b60405180910390fd5b600460008373ffffffffffffffffffffffffffffffffffffffff1673ffffffffffffffffffffffffffffffffffffffff168152602001908152602001600020549050919050565b610f45611ad4565b73ffffffffffffffffffffffffffffffffffffffff16610f63610fc5565b73ffffffffffffffffffffffffffffffffffffffff1614610fb9576040517f08c379a0000000000000000000000000000000000000000000000000000000008152600401610fb09061334a565b60405180910390fd5b610fc360006121b2565b565b60008060009054906101000a900473ffffffffffffffffffffffffffffffffffffffff16905090565b606060028054610ffd9061363d565b80601f01602080910402602001604051908101604052809291908181526020018280546110299061363d565b80156110765780601f1061104b57610100808354040283529160200191611076565b820191906000526020600020905b81548152906001019060200180831161105957829003601f168201915b5050505050905090565b6000426276a700600a6000858152602001908152602001600020546110a5919061349e565b109050919050565b6110b5611ad4565b73ffffffffffffffffffffffffffffffffffffffff168273ffffffffffffffffffffffffffffffffffffffff161415611123576040517f08c379a000000000000000000000000000000000000000000000000000000000815260040161111a9061328a565b60405180910390fd5b8060066000611130611ad4565b73ffffffffffffffffffffffffffffffffffffffff1673ffffffffffffffffffffffffffffffffffffffff16815260200190815260200160002060008473ffffffffffffffffffffffffffffffffffffffff1673ffffffffffffffffffffffffffffffffffffffff16815260200190815260200160002060006101000a81548160ff0219169083151502179055508173ffffffffffffffffffffffffffffffffffffffff166111dd611ad4565b73ffffffffffffffffffffffffffffffffffffffff167f17307eab39ab6107e8899845ad3d59bd9653f200f220920489ca2b5937696c31836040516112229190613137565b60405180910390a35050565b611236611ad4565b73ffffffffffffffffffffffffffffffffffffffff16611254610fc5565b73ffffffffffffffffffffffffffffffffffffffff16146112aa576040517f08c379a00000000000000000000000000000000000000000000000000000000081526004016112a19061334a565b60405180910390fd5b6001600960008373ffffffffffffffffffffffffffffffffffffffff1673ffffffffffffffffffffffffffffffffffffffff16815260200190815260200160002060006101000a81548160ff0219169083151502179055508073ffffffffffffffffffffffffffffffffffffffff167f0a8bb31534c0ed46f380cb867bd5c803a189ced9a764e30b3a4991a9901d747460405160405180910390a250565b611359611353611ad4565b83611ec1565b611398576040517f08c379a000000000000000000000000000000000000000000000000000000000815260040161138f906133ca565b60405180910390fd5b6113a484848484612276565b50505050565b6276a70081565b60003073ffffffffffffffffffffffffffffffffffffffff16600760009054906101000a900473ffffffffffffffffffffffffffffffffffffffff1673ffffffffffffffffffffffffffffffffffffffff166302571be36008546040518263ffffffff167c01000000000000000000000000000000000000000000000000000000000281526004016114439190613152565b60206040518083038186803b15801561145b57600080fd5b505afa15801561146f573d6000803e3d6000fd5b505050506040513d601f19601f820116820180604052508101906114939190612a9f565b73ffffffffffffffffffffffffffffffffffffffff16146114b357600080fd5b600960003373ffffffffffffffffffffffffffffffffffffffff1673ffffffffffffffffffffffffffffffffffffffff16815260200190815260200160002060009054906101000a900460ff1661150957600080fd5b426276a700600a60008681526020019081526020016000205461152c919061349e565b101561153757600080fd5b6276a70082611546919061349e565b6276a70083600a600087815260200190815260200160002054611569919061349e565b611573919061349e565b1161157d57600080fd5b81600a600085815260200190815260200160002060008282546115a0919061349e565b92505081905550827f9b87a00e30f1ac65d898f070f8a3488fe60517182d0a2098e1b4b93a54aa9bd6600a6000868152602001908152602001600020546040516115ea91906133ea565b60405180910390a2600a600084815260200190815260200160002054905092915050565b6060611619826119b6565b611658576040517f08c379a000000000000000000000000000000000000000000000000000000000815260040161164f9061338a565b60405180910390fd5b60006116626122d2565b9050600081511161168257604051806020016040528060008152506116ad565b8061168c846122e9565b60405160200161169d9291906130ac565b6040516020818303038152906040525b915050919050565b6000600a6000838152602001908152602001600020549050919050565b60096020528060005260406000206000915054906101000a900460ff1681565b60085481565b6000600660008473ffffffffffffffffffffffffffffffffffffffff1673ffffffffffffffffffffffffffffffffffffffff16815260200190815260200160002060008373ffffffffffffffffffffffffffffffffffffffff1673ffffffffffffffffffffffffffffffffffffffff16815260200190815260200160002060009054906101000a900460ff16905092915050565b611794611ad4565b73ffffffffffffffffffffffffffffffffffffffff166117b2610fc5565b73ffffffffffffffffffffffffffffffffffffffff1614611808576040517f08c379a00000000000000000000000000000000000000000000000000000000081526004016117ff9061334a565b60405180910390fd5b600073ffffffffffffffffffffffffffffffffffffffff168173ffffffffffffffffffffffffffffffffffffffff161415611878576040517f08c379a000000000000000000000000000000000000000000000000000000000815260040161186f9061322a565b60405180910390fd5b611881816121b2565b50565b61188c611ad4565b73ffffffffffffffffffffffffffffffffffffffff166118aa610fc5565b73ffffffffffffffffffffffffffffffffffffffff1614611900576040517f08c379a00000000000000000000000000000000000000000000000000000000081526004016118f79061334a565b60405180910390fd5b6000600960008373ffffffffffffffffffffffffffffffffffffffff1673ffffffffffffffffffffffffffffffffffffffff16815260200190815260200160002060006101000a81548160ff0219169083151502179055508073ffffffffffffffffffffffffffffffffffffffff167f33d83959be2573f5453b12eb9d43b3499bc57d96bd2f067ba44803c859e8111360405160405180910390a250565b60006119ad8484846001611b95565b90509392505050565b60008073ffffffffffffffffffffffffffffffffffffffff166003600084815260200190815260200160002060009054906101000a900473ffffffffffffffffffffffffffffffffffffffff1673ffffffffffffffffffffffffffffffffffffffff1614159050919050565b6000806003600084815260200190815260200160002060009054906101000a900473ffffffffffffffffffffffffffffffffffffffff169050600073ffffffffffffffffffffffffffffffffffffffff168173ffffffffffffffffffffffffffffffffffffffff161415611acb576040517f08c379a0000000000000000000000000000000000000000000000000000000008152600401611ac2906132ea565b60405180910390fd5b80915050919050565b600033905090565b816005600083815260200190815260200160002060006101000a81548173ffffffffffffffffffffffffffffffffffffffff021916908373ffffffffffffffffffffffffffffffffffffffff160217905550808273ffffffffffffffffffffffffffffffffffffffff16611b4f83611a22565b73ffffffffffffffffffffffffffffffffffffffff167f8c5be1e5ebec7d5bd14f71427d1e84f3dd0314c0f7b2291e5b200ac8c7c3b92560405160405180910390a45050565b60003073ffffffffffffffffffffffffffffffffffffffff16600760009054906101000a900473ffffffffffffffffffffffffffffffffffffffff1673ffffffffffffffffffffffffffffffffffffffff166302571be36008546040518263ffffffff167c0100000000000000000000000000000000000000000000000000000000028152600401611c279190613152565b60206040518083038186803b158015611c3f57600080fd5b505afa158015611c53573d6000803e3d6000fd5b505050506040513d601f19601f82011682018060405250810190611c779190612a9f565b73ffffffffffffffffffffffffffffffffffffffff1614611c9757600080fd5b600960003373ffffffffffffffffffffffffffffffffffffffff1673ffffffffffffffffffffffffffffffffffffffff16815260200190815260200160002060009054906101000a900460ff16611ced57600080fd5b611cf685611080565b611cff57600080fd5b6276a70042611d0e919061349e565b6276a7008442611d1e919061349e565b611d28919061349e565b11611d3257600080fd5b8242611d3e919061349e565b600a600087815260200190815260200160002081905550611d5e856119b6565b15611d6d57611d6c856124b5565b5b611d7784866125c6565b8115611e5157600760009054906101000a900473ffffffffffffffffffffffffffffffffffffffff1673ffffffffffffffffffffffffffffffffffffffff166306ab592360085487600102876040518463ffffffff167c0100000000000000000000000000000000000000000000000000000000028152600401611dfd93929190613196565b602060405180830381600087803b158015611e1757600080fd5b505af1158015611e2b573d6000803e3d6000fd5b505050506040513d601f19601f82011682018060405250810190611e4f9190612c46565b505b8373ffffffffffffffffffffffffffffffffffffffff16857fb3d987963d01b2f68493b4bdb130988f157ea43070d4ad840fee0466ed9370d98542611e96919061349e565b604051611ea391906133ea565b60405180910390a38242611eb7919061349e565b9050949350505050565b600080611ecd83610e54565b90508073ffffffffffffffffffffffffffffffffffffffff168473ffffffffffffffffffffffffffffffffffffffff161480611f3c57508373ffffffffffffffffffffffffffffffffffffffff16611f24846108e3565b73ffffffffffffffffffffffffffffffffffffffff16145b80611f4d5750611f4c81856116f8565b5b91505092915050565b8273ffffffffffffffffffffffffffffffffffffffff16611f7682611a22565b73ffffffffffffffffffffffffffffffffffffffff1614611fcc576040517f08c379a0000000000000000000000000000000000000000000000000000000008152600401611fc39061336a565b60405180910390fd5b600073ffffffffffffffffffffffffffffffffffffffff168273ffffffffffffffffffffffffffffffffffffffff16141561203c576040517f08c379a00000000000000000000000000000000000000000000000000000000081526004016120339061326a565b60405180910390fd5b612047838383612794565b612052600082611adc565b6001600460008573ffffffffffffffffffffffffffffffffffffffff1673ffffffffffffffffffffffffffffffffffffffff16815260200190815260200160002060008282546120a29190613525565b925050819055506001600460008473ffffffffffffffffffffffffffffffffffffffff1673ffffffffffffffffffffffffffffffffffffffff16815260200190815260200160002060008282546120f9919061349e565b92505081905550816003600083815260200190815260200160002060006101000a81548173ffffffffffffffffffffffffffffffffffffffff021916908373ffffffffffffffffffffffffffffffffffffffff160217905550808273ffffffffffffffffffffffffffffffffffffffff168473ffffffffffffffffffffffffffffffffffffffff167fddf252ad1be2c89b69c2b068fc378daa952ba7f163c4a11628f55a4df523b3ef60405160405180910390a4505050565b60008060009054906101000a900473ffffffffffffffffffffffffffffffffffffffff169050816000806101000a81548173ffffffffffffffffffffffffffffffffffffffff021916908373ffffffffffffffffffffffffffffffffffffffff1602179055508173ffffffffffffffffffffffffffffffffffffffff168173ffffffffffffffffffffffffffffffffffffffff167f8be0079c531659141344cd1fd0a4f28419497f9722a3daafe3b4186f6b6457e060405160405180910390a35050565b612281848484611f56565b61228d84848484612799565b6122cc576040517f08c379a00000000000000000000000000000000000000000000000000000000081526004016122c39061320a565b60405180910390fd5b50505050565b606060405180602001604052806000815250905090565b60606000821415612331576040518060400160405280600181526020017f300000000000000000000000000000000000000000000000000000000000000081525090506124b0565b600082905060005b6000821461236357808061234c906136a0565b915050600a8261235c91906134f4565b9150612339565b60008167ffffffffffffffff8111156123a5577f4e487b7100000000000000000000000000000000000000000000000000000000600052604160045260246000fd5b6040519080825280601f01601f1916602001820160405280156123d75781602001600182028036833780820191505090505b5090505b600085146124a9576001826123f09190613525565b9150600a856123ff91906136e9565b603061240b919061349e565b7f010000000000000000000000000000000000000000000000000000000000000002818381518110612466577f4e487b7100000000000000000000000000000000000000000000000000000000600052603260045260246000fd5b60200101907effffffffffffffffffffffffffffffffffffffffffffffffffffffffffffff1916908160001a905350600a856124a291906134f4565b94506123db565b8093505050505b919050565b60006124c082611a22565b90506124ce81600084612794565b6124d9600083611adc565b6001600460008373ffffffffffffffffffffffffffffffffffffffff1673ffffffffffffffffffffffffffffffffffffffff16815260200190815260200160002060008282546125299190613525565b925050819055506003600083815260200190815260200160002060006101000a81549073ffffffffffffffffffffffffffffffffffffffff021916905581600073ffffffffffffffffffffffffffffffffffffffff168273ffffffffffffffffffffffffffffffffffffffff167fddf252ad1be2c89b69c2b068fc378daa952ba7f163c4a11628f55a4df523b3ef60405160405180910390a45050565b600073ffffffffffffffffffffffffffffffffffffffff168273ffffffffffffffffffffffffffffffffffffffff161415612636576040517f08c379a000000000000000000000000000000000000000000000000000000000815260040161262d9061330a565b60405180910390fd5b61263f816119b6565b1561267f576040517f08c379a00000000000000000000000000000000000000000000000000000000081526004016126769061324a565b60405180910390fd5b61268b60008383612794565b6001600460008473ffffffffffffffffffffffffffffffffffffffff1673ffffffffffffffffffffffffffffffffffffffff16815260200190815260200160002060008282546126db919061349e565b92505081905550816003600083815260200190815260200160002060006101000a81548173ffffffffffffffffffffffffffffffffffffffff021916908373ffffffffffffffffffffffffffffffffffffffff160217905550808273ffffffffffffffffffffffffffffffffffffffff16600073ffffffffffffffffffffffffffffffffffffffff167fddf252ad1be2c89b69c2b068fc378daa952ba7f163c4a11628f55a4df523b3ef60405160405180910390a45050565b505050565b60006127ba8473ffffffffffffffffffffffffffffffffffffffff16612968565b1561295b578373ffffffffffffffffffffffffffffffffffffffff1663150b7a026127e3611ad4565b8786866040518563ffffffff167c010000000000000000000000000000000000000000000000000000000002815260040161282194939291906130eb565b602060405180830381600087803b15801561283b57600080fd5b505af192505050801561286c57506040513d601f19601f820116820180604052508101906128699190612c98565b60015b6128ef573d806000811461289c576040519150601f19603f3d011682016040523d82523d6000602084013e6128a1565b606091505b506000815114156128e7576040517f08c379a00000000000000000000000000000000000000000000000000000000081526004016128de9061320a565b60405180910390fd5b805181602001fd5b63150b7a027c0100000000000000000000000000000000000000000000000000000000027bffffffffffffffffffffffffffffffffffffffffffffffffffffffff1916817bffffffffffffffffffffffffffffffffffffffffffffffffffffffff191614915050612960565b600190505b949350505050565b600080823b905060008111915050919050565b600061298e6129898461342a565b613405565b9050828152602081018484840111156129a657600080fd5b6129b18482856135fb565b509392505050565b6000813590506129c881613bf0565b92915050565b6000815190506129dd81613bf0565b92915050565b6000813590506129f281613c07565b92915050565b600081519050612a0781613c1e565b92915050565b600081359050612a1c81613c35565b92915050565b600081519050612a3181613c35565b92915050565b600082601f830112612a4857600080fd5b8135612a5884826020860161297b565b91505092915050565b600081359050612a7081613c4c565b92915050565b600060208284031215612a8857600080fd5b6000612a96848285016129b9565b91505092915050565b600060208284031215612ab157600080fd5b6000612abf848285016129ce565b91505092915050565b60008060408385031215612adb57600080fd5b6000612ae9858286016129b9565b9250506020612afa858286016129b9565b9150509250929050565b600080600060608486031215612b1957600080fd5b6000612b27868287016129b9565b9350506020612b38868287016129b9565b9250506040612b4986828701612a61565b9150509250925092565b60008060008060808587031215612b6957600080fd5b6000612b77878288016129b9565b9450506020612b88878288016129b9565b9350506040612b9987828801612a61565b925050606085013567ffffffffffffffff811115612bb657600080fd5b612bc287828801612a37565b91505092959194509250565b60008060408385031215612be157600080fd5b6000612bef858286016129b9565b9250506020612c00858286016129e3565b9150509250929050565b60008060408385031215612c1d57600080fd5b6000612c2b858286016129b9565b9250506020612c3c85828601612a61565b9150509250929050565b600060208284031215612c5857600080fd5b6000612c66848285016129f8565b91505092915050565b600060208284031215612c8157600080fd5b6000612c8f84828501612a0d565b91505092915050565b600060208284031215612caa57600080fd5b6000612cb884828501612a22565b91505092915050565b600060208284031215612cd357600080fd5b6000612ce184828501612a61565b91505092915050565b60008060408385031215612cfd57600080fd5b6000612d0b85828601612a61565b9250506020612d1c858286016129b9565b9150509250929050565b600080600060608486031215612d3b57600080fd5b6000612d4986828701612a61565b9350506020612d5a868287016129b9565b9250506040612d6b86828701612a61565b9150509250925092565b60008060408385031215612d8857600080fd5b6000612d9685828601612a61565b9250506020612da785828601612a61565b9150509250929050565b612dba81613559565b82525050565b612dc98161356b565b82525050565b612dd881613577565b82525050565b6000612de98261345b565b612df38185613471565b9350612e0381856020860161360a565b612e0c816137d6565b840191505092915050565b612e20816135d7565b82525050565b6000612e3182613466565b612e3b8185613482565b9350612e4b81856020860161360a565b612e54816137d6565b840191505092915050565b6000612e6a82613466565b612e748185613493565b9350612e8481856020860161360a565b80840191505092915050565b6000612e9d603283613482565b9150612ea8826137e7565b604082019050919050565b6000612ec0602683613482565b9150612ecb82613836565b604082019050919050565b6000612ee3601c83613482565b9150612eee82613885565b602082019050919050565b6000612f06602483613482565b9150612f11826138ae565b604082019050919050565b6000612f29601983613482565b9150612f34826138fd565b602082019050919050565b6000612f4c603883613482565b9150612f5782613926565b604082019050919050565b6000612f6f602a83613482565b9150612f7a82613975565b604082019050919050565b6000612f92602983613482565b9150612f9d826139c4565b604082019050919050565b6000612fb5602083613482565b9150612fc082613a13565b602082019050919050565b6000612fd8602c83613482565b9150612fe382613a3c565b604082019050919050565b6000612ffb602083613482565b915061300682613a8b565b602082019050919050565b600061301e602983613482565b915061302982613ab4565b604082019050919050565b6000613041602f83613482565b915061304c82613b03565b604082019050919050565b6000613064602183613482565b915061306f82613b52565b604082019050919050565b6000613087603183613482565b915061309282613ba1565b604082019050919050565b6130a6816135cd565b82525050565b60006130b88285612e5f565b91506130c48284612e5f565b91508190509392505050565b60006020820190506130e56000830184612db1565b92915050565b60006080820190506131006000830187612db1565b61310d6020830186612db1565b61311a604083018561309d565b818103606083015261312c8184612dde565b905095945050505050565b600060208201905061314c6000830184612dc0565b92915050565b60006020820190506131676000830184612dcf565b92915050565b60006040820190506131826000830185612dcf565b61318f6020830184612db1565b9392505050565b60006060820190506131ab6000830186612dcf565b6131b86020830185612dcf565b6131c56040830184612db1565b949350505050565b60006020820190506131e26000830184612e17565b92915050565b600060208201905081810360008301526132028184612e26565b905092915050565b6000602082019050818103600083015261322381612e90565b9050919050565b6000602082019050818103600083015261324381612eb3565b9050919050565b6000602082019050818103600083015261326381612ed6565b9050919050565b6000602082019050818103600083015261328381612ef9565b9050919050565b600060208201905081810360008301526132a381612f1c565b9050919050565b600060208201905081810360008301526132c381612f3f565b9050919050565b600060208201905081810360008301526132e381612f62565b9050919050565b6000602082019050818103600083015261330381612f85565b9050919050565b6000602082019050818103600083015261332381612fa8565b9050919050565b6000602082019050818103600083015261334381612fcb565b9050919050565b6000602082019050818103600083015261336381612fee565b9050919050565b6000602082019050818103600083015261338381613011565b9050919050565b600060208201905081810360008301526133a381613034565b9050919050565b600060208201905081810360008301526133c381613057565b9050919050565b600060208201905081810360008301526133e38161307a565b9050919050565b60006020820190506133ff600083018461309d565b92915050565b600061340f613420565b905061341b828261366f565b919050565b6000604051905090565b600067ffffffffffffffff821115613445576134446137a7565b5b61344e826137d6565b9050602081019050919050565b600081519050919050565b600081519050919050565b600082825260208201905092915050565b600082825260208201905092915050565b600081905092915050565b60006134a9826135cd565b91506134b4836135cd565b9250827fffffffffffffffffffffffffffffffffffffffffffffffffffffffffffffffff038211156134e9576134e861371a565b5b828201905092915050565b60006134ff826135cd565b915061350a836135cd565b92508261351a57613519613749565b5b828204905092915050565b6000613530826135cd565b915061353b836135cd565b92508282101561354e5761354d61371a565b5b828203905092915050565b6000613564826135ad565b9050919050565b60008115159050919050565b6000819050919050565b60007fffffffff0000000000000000000000000000000000000000000000000000000082169050919050565b600073ffffffffffffffffffffffffffffffffffffffff82169050919050565b6000819050919050565b60006135e2826135e9565b9050919050565b60006135f4826135ad565b9050919050565b82818337600083830152505050565b60005b8381101561362857808201518184015260208101905061360d565b83811115613637576000848401525b50505050565b6000600282049050600182168061365557607f821691505b6020821081141561366957613668613778565b5b50919050565b613678826137d6565b810181811067ffffffffffffffff82111715613697576136966137a7565b5b80604052505050565b60006136ab826135cd565b91507fffffffffffffffffffffffffffffffffffffffffffffffffffffffffffffffff8214156136de576136dd61371a565b5b600182019050919050565b60006136f4826135cd565b91506136ff836135cd565b92508261370f5761370e613749565b5b828206905092915050565b7f4e487b7100000000000000000000000000000000000000000000000000000000600052601160045260246000fd5b7f4e487b7100000000000000000000000000000000000000000000000000000000600052601260045260246000fd5b7f4e487b7100000000000000000000000000000000000000000000000000000000600052602260045260246000fd5b7f4e487b7100000000000000000000000000000000000000000000000000000000600052604160045260246000fd5b6000601f19601f8301169050919050565b7f4552433732313a207472616e7366657220746f206e6f6e20455243373231526560008201527f63656976657220696d706c656d656e7465720000000000000000000000000000602082015250565b7f4f776e61626c653a206e6577206f776e657220697320746865207a65726f206160008201527f6464726573730000000000000000000000000000000000000000000000000000602082015250565b7f4552433732313a20746f6b656e20616c7265616479206d696e74656400000000600082015250565b7f4552433732313a207472616e7366657220746f20746865207a65726f2061646460008201527f7265737300000000000000000000000000000000000000000000000000000000602082015250565b7f4552433732313a20617070726f766520746f2063616c6c657200000000000000600082015250565b7f4552433732313a20617070726f76652063616c6c6572206973206e6f74206f7760008201527f6e6572206e6f7220617070726f76656420666f7220616c6c0000000000000000602082015250565b7f4552433732313a2062616c616e636520717565727920666f7220746865207a6560008201527f726f206164647265737300000000000000000000000000000000000000000000602082015250565b7f4552433732313a206f776e657220717565727920666f72206e6f6e657869737460008201527f656e7420746f6b656e0000000000000000000000000000000000000000000000602082015250565b7f4552433732313a206d696e7420746f20746865207a65726f2061646472657373600082015250565b7f4552433732313a20617070726f76656420717565727920666f72206e6f6e657860008201527f697374656e7420746f6b656e0000000000000000000000000000000000000000602082015250565b7f4f776e61626c653a2063616c6c6572206973206e6f7420746865206f776e6572600082015250565b7f4552433732313a207472616e73666572206f6620746f6b656e2074686174206960008201527f73206e6f74206f776e0000000000000000000000000000000000000000000000602082015250565b7f4552433732314d657461646174613a2055524920717565727920666f72206e6f60008201527f6e6578697374656e7420746f6b656e0000000000000000000000000000000000602082015250565b7f4552433732313a20617070726f76616c20746f2063757272656e74206f776e6560008201527f7200000000000000000000000000000000000000000000000000000000000000602082015250565b7f4552433732313a207472616e736665722063616c6c6572206973206e6f74206f60008201527f776e6572206e6f7220617070726f766564000000000000000000000000000000602082015250565b613bf981613559565b8114613c0457600080fd5b50565b613c108161356b565b8114613c1b57600080fd5b50565b613c2781613577565b8114613c3257600080fd5b50565b613c3e81613581565b8114613c4957600080fd5b50565b613c55816135cd565b8114613c6057600080fd5b5056fea26469706673582212200449e6ba83cbf8e74af9564a152a1c0da46be3d081723b3d9b35b7759305711764736f6c63430008040033",
  "immutableReferences": {},
  "source": "pragma solidity >=0.8.4;\n\nimport \"../registry/ENS.sol\";\nimport \"@openzeppelin/contracts/token/ERC721/ERC721.sol\";\n\nimport \"./BaseRegistrar.sol\";\ncontract BaseRegistrarImplementation is ERC721, BaseRegistrar  {\n    // A map of expiry times\n    mapping(uint256=>uint) expiries;\n\n    bytes4 constant private INTERFACE_META_ID = bytes4(keccak256(\"supportsInterface(bytes4)\"));\n    bytes4 constant private ERC721_ID = bytes4(\n        keccak256(\"balanceOf(address)\") ^\n        keccak256(\"ownerOf(uint256)\") ^\n        keccak256(\"approve(address,uint256)\") ^\n        keccak256(\"getApproved(uint256)\") ^\n        keccak256(\"setApprovalForAll(address,bool)\") ^\n        keccak256(\"isApprovedForAll(address,address)\") ^\n        keccak256(\"transferFrom(address,address,uint256)\") ^\n        keccak256(\"safeTransferFrom(address,address,uint256)\") ^\n        keccak256(\"safeTransferFrom(address,address,uint256,bytes)\")\n    );\n    bytes4 constant private RECLAIM_ID = bytes4(keccak256(\"reclaim(uint256,address)\"));\n\n    /**\n     * v2.1.3 version of _isApprovedOrOwner which calls ownerOf(tokenId) and takes grace period into consideration instead of ERC721.ownerOf(tokenId);\n     * https://github.com/OpenZeppelin/openzeppelin-contracts/blob/v2.1.3/contracts/token/ERC721/ERC721.sol#L187\n     * @dev Returns whether the given spender can transfer a given token ID\n     * @param spender address of the spender to query\n     * @param tokenId uint256 ID of the token to be transferred\n     * @return bool whether the msg.sender is approved for the given token ID,\n     *    is an operator of the owner, or is the owner of the token\n     */\n    function _isApprovedOrOwner(address spender, uint256 tokenId) internal view override returns (bool) {\n        address owner = ownerOf(tokenId);\n        return (spender == owner || getApproved(tokenId) == spender || isApprovedForAll(owner, spender));\n    }\n\n    constructor(ENS _ens, bytes32 _baseNode) ERC721(\"\",\"\") {\n        ens = _ens;\n        baseNode = _baseNode;\n    }\n\n    modifier live {\n        require(ens.owner(baseNode) == address(this));\n        _;\n    }\n\n    modifier onlyController {\n        require(controllers[msg.sender]);\n        _;\n    }\n\n    /**\n     * @dev Gets the owner of the specified token ID. Names become unowned\n     *      when their registration expires.\n     * @param tokenId uint256 ID of the token to query the owner of\n     * @return address currently marked as the owner of the given token ID\n     */\n    function ownerOf(uint256 tokenId) public view override(IERC721, ERC721) returns (address) {\n        require(expiries[tokenId] > block.timestamp);\n        return super.ownerOf(tokenId);\n    }\n\n    // Authorises a controller, who can register and renew domains.\n    function addController(address controller) external override onlyOwner {\n        controllers[controller] = true;\n        emit ControllerAdded(controller);\n    }\n\n    // Revoke controller permission for an address.\n    function removeController(address controller) external override onlyOwner {\n        controllers[controller] = false;\n        emit ControllerRemoved(controller);\n    }\n\n    // Set the resolver for the TLD this registrar manages.\n    function setResolver(address resolver) external override onlyOwner {\n        ens.setResolver(baseNode, resolver);\n    }\n\n    // Returns the expiration timestamp of the specified id.\n    function nameExpires(uint256 id) external view override returns(uint) {\n        return expiries[id];\n    }\n\n    // Returns true iff the specified name is available for registration.\n    function available(uint256 id) public view override returns(bool) {\n        // Not available if it's registered here or in its grace period.\n        return expiries[id] + GRACE_PERIOD < block.timestamp;\n    }\n\n    /**\n     * @dev Register a name.\n     * @param id The token ID (keccak256 of the label).\n     * @param owner The address that should own the registration.\n     * @param duration Duration in seconds for the registration.\n     */\n    function register(uint256 id, address owner, uint duration) external override returns(uint) {\n      return _register(id, owner, duration, true);\n    }\n\n    /**\n     * @dev Register a name, without modifying the registry.\n     * @param id The token ID (keccak256 of the label).\n     * @param owner The address that should own the registration.\n     * @param duration Duration in seconds for the registration.\n     */\n    function registerOnly(uint256 id, address owner, uint duration) external returns(uint) {\n      return _register(id, owner, duration, false);\n    }\n\n    function _register(uint256 id, address owner, uint duration, bool updateRegistry) internal live onlyController returns(uint) {\n        require(available(id));\n        require(block.timestamp + duration + GRACE_PERIOD > block.timestamp + GRACE_PERIOD); // Prevent future overflow\n\n        expiries[id] = block.timestamp + duration;\n        if(_exists(id)) {\n            // Name was previously owned, and expired\n            _burn(id);\n        }\n        _mint(owner, id);\n        if(updateRegistry) {\n            ens.setSubnodeOwner(baseNode, bytes32(id), owner);\n        }\n\n        emit NameRegistered(id, owner, block.timestamp + duration);\n\n        return block.timestamp + duration;\n    }\n\n    function renew(uint256 id, uint duration) external override live onlyController returns(uint) {\n        require(expiries[id] + GRACE_PERIOD >= block.timestamp); // Name must be registered here or in grace period\n        require(expiries[id] + duration + GRACE_PERIOD > duration + GRACE_PERIOD); // Prevent future overflow\n\n        expiries[id] += duration;\n        emit NameRenewed(id, expiries[id]);\n        return expiries[id];\n    }\n\n    /**\n     * @dev Reclaim ownership of a name in ENS, if you own it in the registrar.\n     */\n    function reclaim(uint256 id, address owner) external override live {\n        require(_isApprovedOrOwner(msg.sender, id));\n        ens.setSubnodeOwner(baseNode, bytes32(id), owner);\n    }\n\n    function supportsInterface(bytes4 interfaceID) public override(ERC721, IERC165) view returns (bool) {\n        return interfaceID == INTERFACE_META_ID ||\n               interfaceID == ERC721_ID ||\n               interfaceID == RECLAIM_ID;\n    }\n}\n",
  "sourcePath": "@ensdomains/ens-contracts/contracts/ethregistrar/BaseRegistrarImplementation.sol",
  "compiler": {
    "name": "solc",
    "version": "0.8.4+commit.c7e474f2.Emscripten.clang"
  },
  "schemaVersion": "3.4.3",
  "updatedAt": "2021-10-22T08:08:02.675Z",
  "devdoc": {
    "kind": "dev",
    "methods": {
      "approve(address,uint256)": {
        "details": "See {IERC721-approve}."
      },
      "balanceOf(address)": {
        "details": "See {IERC721-balanceOf}."
      },
      "getApproved(uint256)": {
        "details": "See {IERC721-getApproved}."
      },
      "isApprovedForAll(address,address)": {
        "details": "See {IERC721-isApprovedForAll}."
      },
      "name()": {
        "details": "See {IERC721Metadata-name}."
      },
      "owner()": {
        "details": "Returns the address of the current owner."
      },
      "ownerOf(uint256)": {
        "details": "Gets the owner of the specified token ID. Names become unowned      when their registration expires.",
        "params": {
          "tokenId": "uint256 ID of the token to query the owner of"
        },
        "returns": {
          "_0": "address currently marked as the owner of the given token ID"
        }
      },
      "reclaim(uint256,address)": {
        "details": "Reclaim ownership of a name in ENS, if you own it in the registrar."
      },
      "register(uint256,address,uint256)": {
        "details": "Register a name.",
        "params": {
          "duration": "Duration in seconds for the registration.",
          "id": "The token ID (keccak256 of the label).",
          "owner": "The address that should own the registration."
        }
      },
      "registerOnly(uint256,address,uint256)": {
        "details": "Register a name, without modifying the registry.",
        "params": {
          "duration": "Duration in seconds for the registration.",
          "id": "The token ID (keccak256 of the label).",
          "owner": "The address that should own the registration."
        }
      },
      "renounceOwnership()": {
        "details": "Leaves the contract without owner. It will not be possible to call `onlyOwner` functions anymore. Can only be called by the current owner. NOTE: Renouncing ownership will leave the contract without an owner, thereby removing any functionality that is only available to the owner."
      },
      "safeTransferFrom(address,address,uint256)": {
        "details": "See {IERC721-safeTransferFrom}."
      },
      "safeTransferFrom(address,address,uint256,bytes)": {
        "details": "See {IERC721-safeTransferFrom}."
      },
      "setApprovalForAll(address,bool)": {
        "details": "See {IERC721-setApprovalForAll}."
      },
      "symbol()": {
        "details": "See {IERC721Metadata-symbol}."
      },
      "tokenURI(uint256)": {
        "details": "See {IERC721Metadata-tokenURI}."
      },
      "transferFrom(address,address,uint256)": {
        "details": "See {IERC721-transferFrom}."
      },
      "transferOwnership(address)": {
        "details": "Transfers ownership of the contract to a new account (`newOwner`). Can only be called by the current owner."
      }
    },
    "version": 1
  },
  "userdoc": {
    "kind": "user",
    "methods": {},
    "version": 1
  }
}