{
  "contractName": "ETHRegistrarController",
  "abi": [
    {
      "inputs": [
        {
          "internalType": "contract BaseRegistrarImplementation",
          "name": "_base",
          "type": "address"
        },
        {
          "internalType": "contract PriceOracle",
          "name": "_prices",
          "type": "address"
        },
        {
          "internalType": "uint256",
          "name": "_minCommitmentAge",
          "type": "uint256"
        },
        {
          "internalType": "uint256",
          "name": "_maxCommitmentAge",
          "type": "uint256"
        }
      ],
      "stateMutability": "nonpayable",
      "type": "constructor"
    },
    {
      "anonymous": false,
      "inputs": [
        {
          "indexed": false,
          "internalType": "string",
          "name": "name",
          "type": "string"
        },
        {
          "indexed": true,
          "internalType": "bytes32",
          "name": "label",
          "type": "bytes32"
        },
        {
          "indexed": true,
          "internalType": "address",
          "name": "owner",
          "type": "address"
        },
        {
          "indexed": false,
          "internalType": "uint256",
          "name": "cost",
          "type": "uint256"
        },
        {
          "indexed": false,
          "internalType": "uint256",
          "name": "expires",
          "type": "uint256"
        }
      ],
      "name": "NameRegistered",
      "type": "event"
    },
    {
      "anonymous": false,
      "inputs": [
        {
          "indexed": false,
          "internalType": "string",
          "name": "name",
          "type": "string"
        },
        {
          "indexed": true,
          "internalType": "bytes32",
          "name": "label",
          "type": "bytes32"
        },
        {
          "indexed": false,
          "internalType": "uint256",
          "name": "cost",
          "type": "uint256"
        },
        {
          "indexed": false,
          "internalType": "uint256",
          "name": "expires",
          "type": "uint256"
        }
      ],
      "name": "NameRenewed",
      "type": "event"
    },
    {
      "anonymous": false,
      "inputs": [
        {
          "indexed": true,
          "internalType": "address",
          "name": "oracle",
          "type": "address"
        }
      ],
      "name": "NewPriceOracle",
      "type": "event"
    },
    {
      "anonymous": false,
      "inputs": [
        {
          "indexed": true,
          "internalType": "address",
          "name": "previousOwner",
          "type": "address"
        },
        {
          "indexed": true,
          "internalType": "address",
          "name": "newOwner",
          "type": "address"
        }
      ],
      "name": "OwnershipTransferred",
      "type": "event"
    },
    {
      "inputs": [],
      "name": "MIN_REGISTRATION_DURATION",
      "outputs": [
        {
          "internalType": "uint256",
          "name": "",
          "type": "uint256"
        }
      ],
      "stateMutability": "view",
      "type": "function"
    },
    {
      "inputs": [
        {
          "internalType": "bytes32",
          "name": "",
          "type": "bytes32"
        }
      ],
      "name": "commitments",
      "outputs": [
        {
          "internalType": "uint256",
          "name": "",
          "type": "uint256"
        }
      ],
      "stateMutability": "view",
      "type": "function"
    },
    {
      "inputs": [],
      "name": "maxCommitmentAge",
      "outputs": [
        {
          "internalType": "uint256",
          "name": "",
          "type": "uint256"
        }
      ],
      "stateMutability": "view",
      "type": "function"
    },
    {
      "inputs": [],
      "name": "minCommitmentAge",
      "outputs": [
        {
          "internalType": "uint256",
          "name": "",
          "type": "uint256"
        }
      ],
      "stateMutability": "view",
      "type": "function"
    },
    {
      "inputs": [],
      "name": "owner",
      "outputs": [
        {
          "internalType": "address",
          "name": "",
          "type": "address"
        }
      ],
      "stateMutability": "view",
      "type": "function"
    },
    {
      "inputs": [],
      "name": "renounceOwnership",
      "outputs": [],
      "stateMutability": "nonpayable",
      "type": "function"
    },
    {
      "inputs": [
        {
          "internalType": "address",
          "name": "newOwner",
          "type": "address"
        }
      ],
      "name": "transferOwnership",
      "outputs": [],
      "stateMutability": "nonpayable",
      "type": "function"
    },
    {
      "inputs": [
        {
          "internalType": "string",
          "name": "name",
          "type": "string"
        },
        {
          "internalType": "uint256",
          "name": "duration",
          "type": "uint256"
        }
      ],
      "name": "rentPrice",
      "outputs": [
        {
          "internalType": "uint256",
          "name": "",
          "type": "uint256"
        }
      ],
      "stateMutability": "view",
      "type": "function"
    },
    {
      "inputs": [
        {
          "internalType": "string",
          "name": "name",
          "type": "string"
        }
      ],
      "name": "valid",
      "outputs": [
        {
          "internalType": "bool",
          "name": "",
          "type": "bool"
        }
      ],
      "stateMutability": "pure",
      "type": "function"
    },
    {
      "inputs": [
        {
          "internalType": "string",
          "name": "name",
          "type": "string"
        }
      ],
      "name": "available",
      "outputs": [
        {
          "internalType": "bool",
          "name": "",
          "type": "bool"
        }
      ],
      "stateMutability": "view",
      "type": "function"
    },
    {
      "inputs": [
        {
          "internalType": "string",
          "name": "name",
          "type": "string"
        },
        {
          "internalType": "address",
          "name": "owner",
          "type": "address"
        },
        {
          "internalType": "bytes32",
          "name": "secret",
          "type": "bytes32"
        }
      ],
      "name": "makeCommitment",
      "outputs": [
        {
          "internalType": "bytes32",
          "name": "",
          "type": "bytes32"
        }
      ],
      "stateMutability": "pure",
      "type": "function"
    },
    {
      "inputs": [
        {
          "internalType": "string",
          "name": "name",
          "type": "string"
        },
        {
          "internalType": "address",
          "name": "owner",
          "type": "address"
        },
        {
          "internalType": "bytes32",
          "name": "secret",
          "type": "bytes32"
        },
        {
          "internalType": "address",
          "name": "resolver",
          "type": "address"
        },
        {
          "internalType": "address",
          "name": "addr",
          "type": "address"
        }
      ],
      "name": "makeCommitmentWithConfig",
      "outputs": [
        {
          "internalType": "bytes32",
          "name": "",
          "type": "bytes32"
        }
      ],
      "stateMutability": "pure",
      "type": "function"
    },
    {
      "inputs": [
        {
          "internalType": "bytes32",
          "name": "commitment",
          "type": "bytes32"
        }
      ],
      "name": "commit",
      "outputs": [],
      "stateMutability": "nonpayable",
      "type": "function"
    },
    {
      "inputs": [
        {
          "internalType": "string",
          "name": "name",
          "type": "string"
        },
        {
          "internalType": "address",
          "name": "owner",
          "type": "address"
        },
        {
          "internalType": "uint256",
          "name": "duration",
          "type": "uint256"
        },
        {
          "internalType": "bytes32",
          "name": "secret",
          "type": "bytes32"
        }
      ],
      "name": "register",
      "outputs": [],
      "stateMutability": "payable",
      "type": "function"
    },
    {
      "inputs": [
        {
          "internalType": "string",
          "name": "name",
          "type": "string"
        },
        {
          "internalType": "address",
          "name": "owner",
          "type": "address"
        },
        {
          "internalType": "uint256",
          "name": "duration",
          "type": "uint256"
        },
        {
          "internalType": "bytes32",
          "name": "secret",
          "type": "bytes32"
        },
        {
          "internalType": "address",
          "name": "resolver",
          "type": "address"
        },
        {
          "internalType": "address",
          "name": "addr",
          "type": "address"
        }
      ],
      "name": "registerWithConfig",
      "outputs": [],
      "stateMutability": "payable",
      "type": "function"
    },
    {
      "inputs": [
        {
          "internalType": "string",
          "name": "name",
          "type": "string"
        },
        {
          "internalType": "uint256",
          "name": "duration",
          "type": "uint256"
        }
      ],
      "name": "renew",
      "outputs": [],
      "stateMutability": "payable",
      "type": "function"
    },
    {
      "inputs": [
        {
          "internalType": "contract PriceOracle",
          "name": "_prices",
          "type": "address"
        }
      ],
      "name": "setPriceOracle",
      "outputs": [],
      "stateMutability": "nonpayable",
      "type": "function"
    },
    {
      "inputs": [
        {
          "internalType": "uint256",
          "name": "_minCommitmentAge",
          "type": "uint256"
        },
        {
          "internalType": "uint256",
          "name": "_maxCommitmentAge",
          "type": "uint256"
        }
      ],
      "name": "setCommitmentAges",
      "outputs": [],
      "stateMutability": "nonpayable",
      "type": "function"
    },
    {
      "inputs": [],
      "name": "withdraw",
      "outputs": [],
      "stateMutability": "nonpayable",
      "type": "function"
    },
    {
      "inputs": [
        {
          "internalType": "bytes4",
          "name": "interfaceID",
          "type": "bytes4"
        }
      ],
      "name": "supportsInterface",
      "outputs": [
        {
          "internalType": "bool",
          "name": "",
          "type": "bool"
        }
      ],
      "stateMutability": "pure",
      "type": "function"
    }
  ],
  "bytecode": "0x60806040523480156200001157600080fd5b5060405162002f0738038062002f07833981810160405281019062000037919062000221565b620000696200005462000110640100000000026401000000009004565b62000118640100000000026401000000009004565b8181116200007657600080fd5b83600160006101000a81548173ffffffffffffffffffffffffffffffffffffffff021916908373ffffffffffffffffffffffffffffffffffffffff16021790555082600260006101000a81548173ffffffffffffffffffffffffffffffffffffffff021916908373ffffffffffffffffffffffffffffffffffffffff16021790555081600381905550806004819055505050505062000341565b600033905090565b60008060009054906101000a900473ffffffffffffffffffffffffffffffffffffffff169050816000806101000a81548173ffffffffffffffffffffffffffffffffffffffff021916908373ffffffffffffffffffffffffffffffffffffffff1602179055508173ffffffffffffffffffffffffffffffffffffffff168173ffffffffffffffffffffffffffffffffffffffff167f8be0079c531659141344cd1fd0a4f28419497f9722a3daafe3b4186f6b6457e060405160405180910390a35050565b600081519050620001ed81620002f3565b92915050565b60008151905062000204816200030d565b92915050565b6000815190506200021b8162000327565b92915050565b600080600080608085870312156200023857600080fd5b60006200024887828801620001dc565b94505060206200025b87828801620001f3565b93505060406200026e878288016200020a565b925050606062000281878288016200020a565b91505092959194509250565b60006200029a82620002c9565b9050919050565b6000620002ae826200028d565b9050919050565b6000620002c2826200028d565b9050919050565b600073ffffffffffffffffffffffffffffffffffffffff82169050919050565b6000819050919050565b620002fe81620002a1565b81146200030a57600080fd5b50565b6200031881620002b5565b81146200032457600080fd5b50565b6200033281620002e9565b81146200033e57600080fd5b50565b612bb680620003516000396000f3fe60806040526004361061013c576000357c0100000000000000000000000000000000000000000000000000000000900480638d839ffe116100bd578063ce1e09c011610081578063ce1e09c0146103e8578063f14fcbc814610413578063f2fde38b1461043c578063f49826be14610465578063f7a16963146104a25761013c565b80638d839ffe146102fc5780638da5cb5b146103275780639791c09714610352578063acf1a8411461038f578063aeb8ce9b146103ab5761013c565b80637e324479116101045780637e32447914610212578063839df9451461023b57806383e7f6ff1461027857806385f6d155146102b55780638a95b09f146102d15761013c565b806301ffc9a7146101415780633ccfd60b1461017e5780633d86c52f14610195578063530e784f146101d2578063715018a6146101fb575b600080fd5b34801561014d57600080fd5b5061016860048036038101906101639190611f39565b6104be565b604051610175919061258b565b60405180910390f35b34801561018a57600080fd5b506101936106c4565b005b3480156101a157600080fd5b506101bc60048036038101906101b79190612134565b6107a0565b6040516101c991906125a6565b60405180910390f35b3480156101de57600080fd5b506101f960048036038101906101f49190611f8b565b6108c3565b005b34801561020757600080fd5b506102106109e8565b005b34801561021e57600080fd5b50610239600480360381019061023491906122e1565b610a70565b005b34801561024757600080fd5b50610262600480360381019061025d9190611ee7565b610afe565b60405161026f91906126a8565b60405180910390f35b34801561028457600080fd5b5061029f600480360381019061029a9190612264565b610b16565b6040516102ac91906126a8565b60405180910390f35b6102cf60048036038101906102ca9190611fb4565b610cc1565b005b3480156102dd57600080fd5b506102e6610d1b565b6040516102f391906126a8565b60405180910390f35b34801561030857600080fd5b50610311610d22565b60405161031e91906126a8565b60405180910390f35b34801561033357600080fd5b5061033c610d28565b6040516103499190612539565b60405180910390f35b34801561035e57600080fd5b506103796004803603810190610374919061208c565b610d51565b604051610386919061258b565b60405180910390f35b6103a960048036038101906103a49190612034565b610d67565b005b3480156103b757600080fd5b506103d260048036038101906103cd919061208c565b610f56565b6040516103df919061258b565b60405180910390f35b3480156103f457600080fd5b506103fd611047565b60405161040a91906126a8565b60405180910390f35b34801561041f57600080fd5b5061043a60048036038101906104359190611ee7565b61104d565b005b34801561044857600080fd5b50610463600480360381019061045e9190611e95565b611094565b005b34801561047157600080fd5b5061048c600480360381019061048791906120cd565b61118c565b60405161049991906125a6565b60405180910390f35b6104bc60048036038101906104b791906121c3565b6111a5565b005b60007f01ffc9a7a5cef8baa21ed3c5c0d7e23accb804b619e9333b597f47a0d84076e27bffffffffffffffffffffffffffffffffffffffffffffffffffffffff1916827bffffffffffffffffffffffffffffffffffffffffffffffffffffffff1916148061063357507facf1a8418b97267ffdb4c11281360744af0ddfe62846b256a04a02acee3a53c37f85f6d1554d9d3ed5c2776e29804063f395dfd65a8dc71f4d1cb6f073d7ee75a37ff14fcbc8f6996b31406143e2613e60bde3c1118cfe166c0aa27ba40ef1033df57ff49826be766d3cc8dc7e4aab3f18eb3d339eb3bce85a7b9144119bbe997b2cc37faeb8ce9b70d5d3f3fba501c34cd61a54703dbe3cfb25bd75d3574635f9ea76837f83e7f6ff8df5fd22801ca995afba5d2bc5cac5264a339adb4a410c5da6c4332418181818187bffffffffffffffffffffffffffffffffffffffffffffffffffffffff1916827bffffffffffffffffffffffffffffffffffffffffffffffffffffffff1916145b806106bd57507f3d86c52f15403f1a062ec90b8fe0792e3be0a9cb236cd8ee4ec4b45821bd2faa7ff7a169630bfe39d181bbd2e0b758ee9f1a6ddc0eca0932c13225406d06d41653187bffffffffffffffffffffffffffffffffffffffffffffffffffffffff1916827bffffffffffffffffffffffffffffffffffffffffffffffffffffffff1916145b9050919050565b6106cc6118ea565b73ffffffffffffffffffffffffffffffffffffffff166106ea610d28565b73ffffffffffffffffffffffffffffffffffffffff1614610740576040517f08c379a000000000000000000000000000000000000000000000000000000000815260040161073790612688565b60405180910390fd5b3373ffffffffffffffffffffffffffffffffffffffff166108fc3073ffffffffffffffffffffffffffffffffffffffff16319081150290604051600060405180830381858888f1935050505015801561079d573d6000803e3d6000fd5b50565b60008086805190602001209050600073ffffffffffffffffffffffffffffffffffffffff168473ffffffffffffffffffffffffffffffffffffffff161480156108155750600073ffffffffffffffffffffffffffffffffffffffff168373ffffffffffffffffffffffffffffffffffffffff16145b1561084d5780868660405160200161082f939291906124b7565b604051602081830303815290604052805190602001209150506108ba565b600073ffffffffffffffffffffffffffffffffffffffff168473ffffffffffffffffffffffffffffffffffffffff16141561088757600080fd5b80868585886040516020016108a0959493929190612458565b604051602081830303815290604052805190602001209150505b95945050505050565b6108cb6118ea565b73ffffffffffffffffffffffffffffffffffffffff166108e9610d28565b73ffffffffffffffffffffffffffffffffffffffff161461093f576040517f08c379a000000000000000000000000000000000000000000000000000000000815260040161093690612688565b60405180910390fd5b80600260006101000a81548173ffffffffffffffffffffffffffffffffffffffff021916908373ffffffffffffffffffffffffffffffffffffffff160217905550600260009054906101000a900473ffffffffffffffffffffffffffffffffffffffff1673ffffffffffffffffffffffffffffffffffffffff167ff261845a790fe29bbd6631e2ca4a5bdc83e6eed7c3271d9590d97287e00e912360405160405180910390a250565b6109f06118ea565b73ffffffffffffffffffffffffffffffffffffffff16610a0e610d28565b73ffffffffffffffffffffffffffffffffffffffff1614610a64576040517f08c379a0000000000000000000000000000000000000000000000000000000008152600401610a5b90612688565b60405180910390fd5b610a6e60006118f2565b565b610a786118ea565b73ffffffffffffffffffffffffffffffffffffffff16610a96610d28565b73ffffffffffffffffffffffffffffffffffffffff1614610aec576040517f08c379a0000000000000000000000000000000000000000000000000000000008152600401610ae390612688565b60405180910390fd5b81600381905550806004819055505050565b60056020528060005260406000206000915090505481565b60008083805190602001209050600260009054906101000a900473ffffffffffffffffffffffffffffffffffffffff1673ffffffffffffffffffffffffffffffffffffffff166350e9a71585600160009054906101000a900473ffffffffffffffffffffffffffffffffffffffff1673ffffffffffffffffffffffffffffffffffffffff1663d6e4fa8685600190046040518263ffffffff167c0100000000000000000000000000000000000000000000000000000000028152600401610bdd91906126a8565b60206040518083038186803b158015610bf557600080fd5b505afa158015610c09573d6000803e3d6000fd5b505050506040513d601f19601f82011682018060405250810190610c2d91906122b8565b866040518463ffffffff167c0100000000000000000000000000000000000000000000000000000000028152600401610c689392919061262a565b60206040518083038186803b158015610c8057600080fd5b505afa158015610c94573d6000803e3d6000fd5b505050506040513d601f19601f82011682018060405250810190610cb891906122b8565b91505092915050565b610d1485858080601f016020809104026020016040519081016040528093929190818152602001838380828437600081840152601f19601f820116905080830192505050505050508484846000806111a5565b5050505050565b6224ea0081565b60035481565b60008060009054906101000a900473ffffffffffffffffffffffffffffffffffffffff16905090565b60006003610d5e836119b6565b10159050919050565b6000610db784848080601f016020809104026020016040519081016040528093929190818152602001838380828437600081840152601f19601f8201169050808301925050505050505083610b16565b905080341015610dc657600080fd5b60008484604051610dd8929190612520565b604051809103902090506000600160009054906101000a900473ffffffffffffffffffffffffffffffffffffffff1673ffffffffffffffffffffffffffffffffffffffff1663c475abff8360019004866040518363ffffffff167c0100000000000000000000000000000000000000000000000000000000028152600401610e61929190612723565b602060405180830381600087803b158015610e7b57600080fd5b505af1158015610e8f573d6000803e3d6000fd5b505050506040513d601f19601f82011682018060405250810190610eb391906122b8565b905082341115610f10573373ffffffffffffffffffffffffffffffffffffffff166108fc8434610ee3919061281f565b9081150290604051600060405180830381858888f19350505050158015610f0e573d6000803e3d6000fd5b505b817f3da24c024582931cfaf8267d8ed24d13a82a8068d5bd337d30ec45cea4e506ae87878685604051610f4694939291906125ea565b60405180910390a2505050505050565b60008082805190602001209050610f6c83610d51565b801561103f5750600160009054906101000a900473ffffffffffffffffffffffffffffffffffffffff1673ffffffffffffffffffffffffffffffffffffffff166396e494e882600190046040518263ffffffff167c0100000000000000000000000000000000000000000000000000000000028152600401610fee91906126a8565b60206040518083038186803b15801561100657600080fd5b505afa15801561101a573d6000803e3d6000fd5b505050506040513d601f19601f8201168201806040525081019061103e9190611ebe565b5b915050919050565b60045481565b42600454600560008481526020019081526020016000205461106f91906127c9565b1061107957600080fd5b42600560008381526020019081526020016000208190555050565b61109c6118ea565b73ffffffffffffffffffffffffffffffffffffffff166110ba610d28565b73ffffffffffffffffffffffffffffffffffffffff1614611110576040517f08c379a000000000000000000000000000000000000000000000000000000000815260040161110790612688565b60405180910390fd5b600073ffffffffffffffffffffffffffffffffffffffff168173ffffffffffffffffffffffffffffffffffffffff161415611180576040517f08c379a000000000000000000000000000000000000000000000000000000000815260040161117790612668565b60405180910390fd5b611189816118f2565b50565b600061119c8484846000806107a0565b90509392505050565b60006111b487878686866107a0565b905060006111c3888784611c6c565b905060008880519060200120905060008160019004905060008073ffffffffffffffffffffffffffffffffffffffff168773ffffffffffffffffffffffffffffffffffffffff161461172657600160009054906101000a900473ffffffffffffffffffffffffffffffffffffffff1673ffffffffffffffffffffffffffffffffffffffff1663fca247ac83308c6040518463ffffffff167c010000000000000000000000000000000000000000000000000000000002815260040161128a939291906126ec565b602060405180830381600087803b1580156112a457600080fd5b505af11580156112b8573d6000803e3d6000fd5b505050506040513d601f19601f820116820180604052508101906112dc91906122b8565b90506000600160009054906101000a900473ffffffffffffffffffffffffffffffffffffffff1673ffffffffffffffffffffffffffffffffffffffff1663ddf7fcb06040518163ffffffff167c010000000000000000000000000000000000000000000000000000000002815260040160206040518083038186803b15801561136457600080fd5b505afa158015611378573d6000803e3d6000fd5b505050506040513d601f19601f8201168201806040525081019061139c9190611f10565b846040516020016113ae9291906124f4565b604051602081830303815290604052805190602001209050600160009054906101000a900473ffffffffffffffffffffffffffffffffffffffff1673ffffffffffffffffffffffffffffffffffffffff16633f15457f6040518163ffffffff167c010000000000000000000000000000000000000000000000000000000002815260040160206040518083038186803b15801561144a57600080fd5b505afa15801561145e573d6000803e3d6000fd5b505050506040513d601f19601f820116820180604052508101906114829190611f62565b73ffffffffffffffffffffffffffffffffffffffff16631896f70a828a6040518363ffffffff167c01000000000000000000000000000000000000000000000000000000000281526004016114d89291906125c1565b600060405180830381600087803b1580156114f257600080fd5b505af1158015611506573d6000803e3d6000fd5b50505050600073ffffffffffffffffffffffffffffffffffffffff168773ffffffffffffffffffffffffffffffffffffffff16146115c8578773ffffffffffffffffffffffffffffffffffffffff1663d5fa2b0082896040518363ffffffff167c01000000000000000000000000000000000000000000000000000000000281526004016115959291906125c1565b600060405180830381600087803b1580156115af57600080fd5b505af11580156115c3573d6000803e3d6000fd5b505050505b600160009054906101000a900473ffffffffffffffffffffffffffffffffffffffff1673ffffffffffffffffffffffffffffffffffffffff166328ed4f6c848d6040518363ffffffff167c01000000000000000000000000000000000000000000000000000000000281526004016116419291906126c3565b600060405180830381600087803b15801561165b57600080fd5b505af115801561166f573d6000803e3d6000fd5b50505050600160009054906101000a900473ffffffffffffffffffffffffffffffffffffffff1673ffffffffffffffffffffffffffffffffffffffff166323b872dd308d866040518463ffffffff167c01000000000000000000000000000000000000000000000000000000000281526004016116ee93929190612554565b600060405180830381600087803b15801561170857600080fd5b505af115801561171c573d6000803e3d6000fd5b505050505061182f565b600073ffffffffffffffffffffffffffffffffffffffff168673ffffffffffffffffffffffffffffffffffffffff161461175f57600080fd5b600160009054906101000a900473ffffffffffffffffffffffffffffffffffffffff1673ffffffffffffffffffffffffffffffffffffffff1663fca247ac838c8c6040518463ffffffff167c01000000000000000000000000000000000000000000000000000000000281526004016117da939291906126ec565b602060405180830381600087803b1580156117f457600080fd5b505af1158015611808573d6000803e3d6000fd5b505050506040513d601f19601f8201168201806040525081019061182c91906122b8565b90505b8973ffffffffffffffffffffffffffffffffffffffff16837fca6abbe9d7f11422cb6ca7629fbf6fe9efb1c621f71ce8f02b9f2a230097404f8d878560405161187a9392919061262a565b60405180910390a3833411156118dd573373ffffffffffffffffffffffffffffffffffffffff166108fc85346118b0919061281f565b9081150290604051600060405180830381858888f193505050501580156118db573d6000803e3d6000fd5b505b5050505050505050505050565b600033905090565b60008060009054906101000a900473ffffffffffffffffffffffffffffffffffffffff169050816000806101000a81548173ffffffffffffffffffffffffffffffffffffffff021916908373ffffffffffffffffffffffffffffffffffffffff1602179055508173ffffffffffffffffffffffffffffffffffffffff168173ffffffffffffffffffffffffffffffffffffffff167f8be0079c531659141344cd1fd0a4f28419497f9722a3daafe3b4186f6b6457e060405160405180910390a35050565b60008060008084519050600092505b80821015611c61576000858381518110611a08577f4e487b7100000000000000000000000000000000000000000000000000000000600052603260045260246000fd5b60200101517f010000000000000000000000000000000000000000000000000000000000000090047f010000000000000000000000000000000000000000000000000000000000000002905060807f010000000000000000000000000000000000000000000000000000000000000002817effffffffffffffffffffffffffffffffffffffffffffffffffffffffffffff19161015611ab557600183611aae91906127c9565b9250611c4d565b60e07f010000000000000000000000000000000000000000000000000000000000000002817effffffffffffffffffffffffffffffffffffffffffffffffffffffffffffff19161015611b1657600283611b0f91906127c9565b9250611c4c565b60f07f010000000000000000000000000000000000000000000000000000000000000002817effffffffffffffffffffffffffffffffffffffffffffffffffffffffffffff19161015611b7757600383611b7091906127c9565b9250611c4b565b60f87f010000000000000000000000000000000000000000000000000000000000000002817effffffffffffffffffffffffffffffffffffffffffffffffffffffffffffff19161015611bd857600483611bd191906127c9565b9250611c4a565b60fc7f010000000000000000000000000000000000000000000000000000000000000002817effffffffffffffffffffffffffffffffffffffffffffffffffffffffffffff19161015611c3957600583611c3291906127c9565b9250611c49565b600683611c4691906127c9565b92505b5b5b5b5b508280611c5990612968565b9350506119c5565b829350505050919050565b6000426003546005600085815260200190815260200160002054611c9091906127c9565b1115611c9b57600080fd5b426004546005600085815260200190815260200160002054611cbd91906127c9565b11611cc757600080fd5b611cd084610f56565b611cd957600080fd5b60056000838152602001908152602001600020600090556000611cfc8585610b16565b90506224ea00841015611d0e57600080fd5b80341015611d1b57600080fd5b809150509392505050565b6000611d39611d3484612771565b61274c565b905082815260208101848484011115611d5157600080fd5b611d5c8482856128f5565b509392505050565b600081359050611d7381612adf565b92915050565b600081519050611d8881612af6565b92915050565b600081359050611d9d81612b0d565b92915050565b600081519050611db281612b0d565b92915050565b600081359050611dc781612b24565b92915050565b600081519050611ddc81612b3b565b92915050565b600081359050611df181612b52565b92915050565b60008083601f840112611e0957600080fd5b8235905067ffffffffffffffff811115611e2257600080fd5b602083019150836001820283011115611e3a57600080fd5b9250929050565b600082601f830112611e5257600080fd5b8135611e62848260208601611d26565b91505092915050565b600081359050611e7a81612b69565b92915050565b600081519050611e8f81612b69565b92915050565b600060208284031215611ea757600080fd5b6000611eb584828501611d64565b91505092915050565b600060208284031215611ed057600080fd5b6000611ede84828501611d79565b91505092915050565b600060208284031215611ef957600080fd5b6000611f0784828501611d8e565b91505092915050565b600060208284031215611f2257600080fd5b6000611f3084828501611da3565b91505092915050565b600060208284031215611f4b57600080fd5b6000611f5984828501611db8565b91505092915050565b600060208284031215611f7457600080fd5b6000611f8284828501611dcd565b91505092915050565b600060208284031215611f9d57600080fd5b6000611fab84828501611de2565b91505092915050565b600080600080600060808688031215611fcc57600080fd5b600086013567ffffffffffffffff811115611fe657600080fd5b611ff288828901611df7565b9550955050602061200588828901611d64565b935050604061201688828901611e6b565b925050606061202788828901611d8e565b9150509295509295909350565b60008060006040848603121561204957600080fd5b600084013567ffffffffffffffff81111561206357600080fd5b61206f86828701611df7565b9350935050602061208286828701611e6b565b9150509250925092565b60006020828403121561209e57600080fd5b600082013567ffffffffffffffff8111156120b857600080fd5b6120c484828501611e41565b91505092915050565b6000806000606084860312156120e257600080fd5b600084013567ffffffffffffffff8111156120fc57600080fd5b61210886828701611e41565b935050602061211986828701611d64565b925050604061212a86828701611d8e565b9150509250925092565b600080600080600060a0868803121561214c57600080fd5b600086013567ffffffffffffffff81111561216657600080fd5b61217288828901611e41565b955050602061218388828901611d64565b945050604061219488828901611d8e565b93505060606121a588828901611d64565b92505060806121b688828901611d64565b9150509295509295909350565b60008060008060008060c087890312156121dc57600080fd5b600087013567ffffffffffffffff8111156121f657600080fd5b61220289828a01611e41565b965050602061221389828a01611d64565b955050604061222489828a01611e6b565b945050606061223589828a01611d8e565b935050608061224689828a01611d64565b92505060a061225789828a01611d64565b9150509295509295509295565b6000806040838503121561227757600080fd5b600083013567ffffffffffffffff81111561229157600080fd5b61229d85828601611e41565b92505060206122ae85828601611e6b565b9150509250929050565b6000602082840312156122ca57600080fd5b60006122d884828501611e80565b91505092915050565b600080604083850312156122f457600080fd5b600061230285828601611e6b565b925050602061231385828601611e6b565b9150509250929050565b61232681612853565b82525050565b61233d61233882612853565b6129b1565b82525050565b61234c81612865565b82525050565b61235b81612871565b82525050565b61237261236d82612871565b6129c3565b82525050565b600061238483856127ad565b93506123918385846128f5565b82840190509392505050565b60006123a983856127b8565b93506123b68385846128f5565b6123bf83612a3d565b840190509392505050565b60006123d5826127a2565b6123df81856127b8565b93506123ef818560208601612904565b6123f881612a3d565b840191505092915050565b60006124106026836127b8565b915061241b82612a67565b604082019050919050565b60006124336020836127b8565b915061243e82612ab6565b602082019050919050565b612452816128eb565b82525050565b60006124648288612361565b602082019150612474828761232c565b601482019150612484828661232c565b601482019150612494828561232c565b6014820191506124a48284612361565b6020820191508190509695505050505050565b60006124c38286612361565b6020820191506124d3828561232c565b6014820191506124e38284612361565b602082019150819050949350505050565b60006125008285612361565b6020820191506125108284612361565b6020820191508190509392505050565b600061252d828486612378565b91508190509392505050565b600060208201905061254e600083018461231d565b92915050565b6000606082019050612569600083018661231d565b612576602083018561231d565b6125836040830184612449565b949350505050565b60006020820190506125a06000830184612343565b92915050565b60006020820190506125bb6000830184612352565b92915050565b60006040820190506125d66000830185612352565b6125e3602083018461231d565b9392505050565b6000606082019050818103600083015261260581868861239d565b90506126146020830185612449565b6126216040830184612449565b95945050505050565b6000606082019050818103600083015261264481866123ca565b90506126536020830185612449565b6126606040830184612449565b949350505050565b6000602082019050818103600083015261268181612403565b9050919050565b600060208201905081810360008301526126a181612426565b9050919050565b60006020820190506126bd6000830184612449565b92915050565b60006040820190506126d86000830185612449565b6126e5602083018461231d565b9392505050565b60006060820190506127016000830186612449565b61270e602083018561231d565b61271b6040830184612449565b949350505050565b60006040820190506127386000830185612449565b6127456020830184612449565b9392505050565b6000612756612767565b90506127628282612937565b919050565b6000604051905090565b600067ffffffffffffffff82111561278c5761278b612a0e565b5b61279582612a3d565b9050602081019050919050565b600081519050919050565b600081905092915050565b600082825260208201905092915050565b60006127d4826128eb565b91506127df836128eb565b9250827fffffffffffffffffffffffffffffffffffffffffffffffffffffffffffffffff03821115612814576128136129df565b5b828201905092915050565b600061282a826128eb565b9150612835836128eb565b925082821015612848576128476129df565b5b828203905092915050565b600061285e826128cb565b9050919050565b60008115159050919050565b6000819050919050565b60007fffffffff0000000000000000000000000000000000000000000000000000000082169050919050565b60006128b282612853565b9050919050565b60006128c482612853565b9050919050565b600073ffffffffffffffffffffffffffffffffffffffff82169050919050565b6000819050919050565b82818337600083830152505050565b60005b83811015612922578082015181840152602081019050612907565b83811115612931576000848401525b50505050565b61294082612a3d565b810181811067ffffffffffffffff8211171561295f5761295e612a0e565b5b80604052505050565b6000612973826128eb565b91507fffffffffffffffffffffffffffffffffffffffffffffffffffffffffffffffff8214156129a6576129a56129df565b5b600182019050919050565b60006129bc826129cd565b9050919050565b6000819050919050565b60006129d882612a4e565b9050919050565b7f4e487b7100000000000000000000000000000000000000000000000000000000600052601160045260246000fd5b7f4e487b7100000000000000000000000000000000000000000000000000000000600052604160045260246000fd5b6000601f19601f8301169050919050565b60006c0100000000000000000000000082029050919050565b7f4f776e61626c653a206e6577206f776e657220697320746865207a65726f206160008201527f6464726573730000000000000000000000000000000000000000000000000000602082015250565b7f4f776e61626c653a2063616c6c6572206973206e6f7420746865206f776e6572600082015250565b612ae881612853565b8114612af357600080fd5b50565b612aff81612865565b8114612b0a57600080fd5b50565b612b1681612871565b8114612b2157600080fd5b50565b612b2d8161287b565b8114612b3857600080fd5b50565b612b44816128a7565b8114612b4f57600080fd5b50565b612b5b816128b9565b8114612b6657600080fd5b50565b612b72816128eb565b8114612b7d57600080fd5b5056fea2646970667358221220749c73ece9779739986e459fbf17342c492b6f3a9bcb7190a823717e9903356564736f6c63430008040033",
  "immutableReferences": {},
  "source": "pragma solidity >=0.8.4;\n\nimport \"./PriceOracle.sol\";\nimport \"./BaseRegistrarImplementation.sol\";\nimport \"./StringUtils.sol\";\nimport \"@openzeppelin/contracts/access/Ownable.sol\";\nimport \"../resolvers/Resolver.sol\";\n\n/**\n * @dev A registrar controller for registering and renewing names at fixed cost.\n */\ncontract ETHRegistrarController is Ownable {\n    using StringUtils for *;\n\n    uint constant public MIN_REGISTRATION_DURATION = 28 days;\n\n    bytes4 constant private INTERFACE_META_ID = bytes4(keccak256(\"supportsInterface(bytes4)\"));\n    bytes4 constant private COMMITMENT_CONTROLLER_ID = bytes4(\n        keccak256(\"rentPrice(string,uint256)\") ^\n        keccak256(\"available(string)\") ^\n        keccak256(\"makeCommitment(string,address,bytes32)\") ^\n        keccak256(\"commit(bytes32)\") ^\n        keccak256(\"register(string,address,uint256,bytes32)\") ^\n        keccak256(\"renew(string,uint256)\")\n    );\n\n    bytes4 constant private COMMITMENT_WITH_CONFIG_CONTROLLER_ID = bytes4(\n        keccak256(\"registerWithConfig(string,address,uint256,bytes32,address,address)\") ^\n        keccak256(\"makeCommitmentWithConfig(string,address,bytes32,address,address)\")\n    );\n\n    BaseRegistrarImplementation base;\n    PriceOracle prices;\n    uint public minCommitmentAge;\n    uint public maxCommitmentAge;\n\n    mapping(bytes32=>uint) public commitments;\n\n    event NameRegistered(string name, bytes32 indexed label, address indexed owner, uint cost, uint expires);\n    event NameRenewed(string name, bytes32 indexed label, uint cost, uint expires);\n    event NewPriceOracle(address indexed oracle);\n\n    constructor(BaseRegistrarImplementation _base, PriceOracle _prices, uint _minCommitmentAge, uint _maxCommitmentAge) public {\n        require(_maxCommitmentAge > _minCommitmentAge);\n\n        base = _base;\n        prices = _prices;\n        minCommitmentAge = _minCommitmentAge;\n        maxCommitmentAge = _maxCommitmentAge;\n    }\n\n    function rentPrice(string memory name, uint duration) view public returns(uint) {\n        bytes32 hash = keccak256(bytes(name));\n        return prices.price(name, base.nameExpires(uint256(hash)), duration);\n    }\n\n    function valid(string memory name) public pure returns(bool) {\n        return name.strlen() >= 3;\n    }\n\n    function available(string memory name) public view returns(bool) {\n        bytes32 label = keccak256(bytes(name));\n        return valid(name) && base.available(uint256(label));\n    }\n\n    function makeCommitment(string memory name, address owner, bytes32 secret) pure public returns(bytes32) {\n        return makeCommitmentWithConfig(name, owner, secret, address(0), address(0));\n    }\n\n    function makeCommitmentWithConfig(string memory name, address owner, bytes32 secret, address resolver, address addr) pure public returns(bytes32) {\n        bytes32 label = keccak256(bytes(name));\n        if (resolver == address(0) && addr == address(0)) {\n            return keccak256(abi.encodePacked(label, owner, secret));\n        }\n        require(resolver != address(0));\n        return keccak256(abi.encodePacked(label, owner, resolver, addr, secret));\n    }\n\n    function commit(bytes32 commitment) public {\n        require(commitments[commitment] + maxCommitmentAge < block.timestamp);\n        commitments[commitment] = block.timestamp;\n    }\n\n    function register(string calldata name, address owner, uint duration, bytes32 secret) external payable {\n      registerWithConfig(name, owner, duration, secret, address(0), address(0));\n    }\n\n    function registerWithConfig(string memory name, address owner, uint duration, bytes32 secret, address resolver, address addr) public payable {\n        bytes32 commitment = makeCommitmentWithConfig(name, owner, secret, resolver, addr);\n        uint cost = _consumeCommitment(name, duration, commitment);\n\n        bytes32 label = keccak256(bytes(name));\n        uint256 tokenId = uint256(label);\n\n        uint expires;\n        if(resolver != address(0)) {\n            // Set this contract as the (temporary) owner, giving it\n            // permission to set up the resolver.\n            expires = base.register(tokenId, address(this), duration);\n\n            // The nodehash of this label\n            bytes32 nodehash = keccak256(abi.encodePacked(base.baseNode(), label));\n\n            // Set the resolver\n            base.ens().setResolver(nodehash, resolver);\n\n            // Configure the resolver\n            if (addr != address(0)) {\n                Resolver(resolver).setAddr(nodehash, addr);\n            }\n\n            // Now transfer full ownership to the expeceted owner\n            base.reclaim(tokenId, owner);\n            base.transferFrom(address(this), owner, tokenId);\n        } else {\n            require(addr == address(0));\n            expires = base.register(tokenId, owner, duration);\n        }\n\n        emit NameRegistered(name, label, owner, cost, expires);\n\n        // Refund any extra payment\n        if(msg.value > cost) {\n            payable(msg.sender).transfer(msg.value - cost);\n        }\n    }\n\n    function renew(string calldata name, uint duration) external payable {\n        uint cost = rentPrice(name, duration);\n        require(msg.value >= cost);\n\n        bytes32 label = keccak256(bytes(name));\n        uint expires = base.renew(uint256(label), duration);\n\n        if(msg.value > cost) {\n            payable(msg.sender).transfer(msg.value - cost);\n        }\n\n        emit NameRenewed(name, label, cost, expires);\n    }\n\n    function setPriceOracle(PriceOracle _prices) public onlyOwner {\n        prices = _prices;\n        emit NewPriceOracle(address(prices));\n    }\n\n    function setCommitmentAges(uint _minCommitmentAge, uint _maxCommitmentAge) public onlyOwner {\n        minCommitmentAge = _minCommitmentAge;\n        maxCommitmentAge = _maxCommitmentAge;\n    }\n\n    function withdraw() public onlyOwner {\n        payable(msg.sender).transfer(address(this).balance);        \n    }\n\n    function supportsInterface(bytes4 interfaceID) external pure returns (bool) {\n        return interfaceID == INTERFACE_META_ID ||\n               interfaceID == COMMITMENT_CONTROLLER_ID ||\n               interfaceID == COMMITMENT_WITH_CONFIG_CONTROLLER_ID;\n    }\n\n    function _consumeCommitment(string memory name, uint duration, bytes32 commitment) internal returns (uint256) {\n        // Require a valid commitment\n        require(commitments[commitment] + minCommitmentAge <= block.timestamp);\n\n        // If the commitment is too old, or the name is registered, stop\n        require(commitments[commitment] + maxCommitmentAge > block.timestamp);\n        require(available(name));\n\n        delete(commitments[commitment]);\n\n        uint cost = rentPrice(name, duration);\n        require(duration >= MIN_REGISTRATION_DURATION);\n        require(msg.value >= cost);\n\n        return cost;\n    }\n}\n",
  "sourcePath": "@ensdomains/ens-contracts/contracts/ethregistrar/ETHRegistrarController.sol",
  "compiler": {
    "name": "solc",
    "version": "0.8.4+commit.c7e474f2.Emscripten.clang"
  },
  "schemaVersion": "3.4.3",
  "updatedAt": "2021-10-22T08:08:02.687Z",
  "devdoc": {
    "details": "A registrar controller for registering and renewing names at fixed cost.",
    "kind": "dev",
    "methods": {
      "owner()": {
        "details": "Returns the address of the current owner."
      },
      "renounceOwnership()": {
        "details": "Leaves the contract without owner. It will not be possible to call `onlyOwner` functions anymore. Can only be called by the current owner. NOTE: Renouncing ownership will leave the contract without an owner, thereby removing any functionality that is only available to the owner."
      },
      "transferOwnership(address)": {
        "details": "Transfers ownership of the contract to a new account (`newOwner`). Can only be called by the current owner."
      }
    },
    "version": 1
  },
  "userdoc": {
    "kind": "user",
    "methods": {},
    "version": 1
  }
}