{
  "contractName": "Migrations",
  "abi": [
    {
      "inputs": [],
      "name": "last_completed_migration",
      "outputs": [
        {
          "internalType": "uint256",
          "name": "",
          "type": "uint256"
        }
      ],
      "stateMutability": "view",
      "type": "function"
    },
    {
      "inputs": [],
      "name": "owner",
      "outputs": [
        {
          "internalType": "address",
          "name": "",
          "type": "address"
        }
      ],
      "stateMutability": "view",
      "type": "function"
    },
    {
      "inputs": [
        {
          "internalType": "uint256",
          "name": "completed",
          "type": "uint256"
        }
      ],
      "name": "setCompleted",
      "outputs": [],
      "stateMutability": "nonpayable",
      "type": "function"
    }
  ],
  "bytecode": "0x6080604052336000806101000a81548173ffffffffffffffffffffffffffffffffffffffff021916908373ffffffffffffffffffffffffffffffffffffffff16021790555034801561005057600080fd5b5061033b806100606000396000f3fe608060405234801561001057600080fd5b506004361061005e576000357c010000000000000000000000000000000000000000000000000000000090048063445df0ac146100635780638da5cb5b14610081578063fdacd5761461009f575b600080fd5b61006b6100bb565b6040516100789190610237565b60405180910390f35b6100896100c1565b60405161009691906101fc565b60405180910390f35b6100b960048036038101906100b49190610192565b6100e5565b005b60015481565b60008054906101000a900473ffffffffffffffffffffffffffffffffffffffff1681565b60008054906101000a900473ffffffffffffffffffffffffffffffffffffffff1673ffffffffffffffffffffffffffffffffffffffff163373ffffffffffffffffffffffffffffffffffffffff1614610173576040517f08c379a000000000000000000000000000000000000000000000000000000000815260040161016a90610217565b60405180910390fd5b8060018190555050565b60008135905061018c816102ee565b92915050565b6000602082840312156101a457600080fd5b60006101b28482850161017d565b91505092915050565b6101c481610263565b82525050565b60006101d7603383610252565b91506101e28261029f565b604082019050919050565b6101f681610295565b82525050565b600060208201905061021160008301846101bb565b92915050565b60006020820190508181036000830152610230816101ca565b9050919050565b600060208201905061024c60008301846101ed565b92915050565b600082825260208201905092915050565b600061026e82610275565b9050919050565b600073ffffffffffffffffffffffffffffffffffffffff82169050919050565b6000819050919050565b7f546869732066756e6374696f6e206973207265737472696374656420746f207460008201527f686520636f6e74726163742773206f776e657200000000000000000000000000602082015250565b6102f781610295565b811461030257600080fd5b5056fea264697066735822122022c94c0fdd1ff119717392f8fa88a4db7a59f70a9ce0cb336572a4c0416a607664736f6c63430008040033",
  "immutableReferences": {},
  "source": "// SPDX-License-Identifier: MIT\n\npragma solidity >=0.8.4;\n\nimport '@ensdomains/ens-contracts/contracts/registry/ENS.sol';\nimport '@ensdomains/ens-contracts/contracts/ethregistrar/BaseRegistrar.sol';\nimport '@ensdomains/ens-contracts/contracts/ethregistrar/ETHRegistrarController.sol';\n\ncontract Migrations {\n  address public owner = msg.sender;\n  uint public last_completed_migration;\n\n  modifier restricted() {\n    require(\n      msg.sender == owner,\n      \"This function is restricted to the contract's owner\"\n    );\n    _;\n  }\n\n  function setCompleted(uint completed) public restricted {\n    last_completed_migration = completed;\n  }\n}\n",
  "sourcePath": "/Users/hypotyposis/ens-deploy/contracts/Migrations.sol",
  "compiler": {
    "name": "solc",
    "version": "0.8.4+commit.c7e474f2.Emscripten.clang"
  },
  "schemaVersion": "3.4.3",
  "updatedAt": "2021-10-22T08:08:13.748Z",
  "networkType": "ethereum",
  "devdoc": {
    "kind": "dev",
    "methods": {},
    "version": 1
  },
  "userdoc": {
    "kind": "user",
    "methods": {},
    "version": 1
  }
}